{
  "contractName": "ZIPSharks",
  "abi": [
    {
      "inputs": [],
      "stateMutability": "nonpayable",
      "type": "constructor"
    },
    {
      "anonymous": false,
      "inputs": [
        {
          "indexed": true,
          "internalType": "address",
          "name": "owner",
          "type": "address"
        },
        {
          "indexed": true,
          "internalType": "address",
          "name": "approved",
          "type": "address"
        },
        {
          "indexed": true,
          "internalType": "uint256",
          "name": "tokenId",
          "type": "uint256"
        }
      ],
      "name": "Approval",
      "type": "event"
    },
    {
      "anonymous": false,
      "inputs": [
        {
          "indexed": true,
          "internalType": "address",
          "name": "owner",
          "type": "address"
        },
        {
          "indexed": true,
          "internalType": "address",
          "name": "operator",
          "type": "address"
        },
        {
          "indexed": false,
          "internalType": "bool",
          "name": "approved",
          "type": "bool"
        }
      ],
      "name": "ApprovalForAll",
      "type": "event"
    },
    {
      "anonymous": false,
      "inputs": [
        {
          "indexed": true,
          "internalType": "address",
          "name": "previousOwner",
          "type": "address"
        },
        {
          "indexed": true,
          "internalType": "address",
          "name": "newOwner",
          "type": "address"
        }
      ],
      "name": "OwnershipTransferred",
      "type": "event"
    },
    {
      "anonymous": false,
      "inputs": [
        {
          "indexed": true,
          "internalType": "address",
          "name": "from",
          "type": "address"
        },
        {
          "indexed": true,
          "internalType": "address",
          "name": "to",
          "type": "address"
        },
        {
          "indexed": true,
          "internalType": "uint256",
          "name": "tokenId",
          "type": "uint256"
        }
      ],
      "name": "Transfer",
      "type": "event"
    },
    {
      "inputs": [
        {
          "internalType": "address",
          "name": "to",
          "type": "address"
        },
        {
          "internalType": "uint256",
          "name": "tokenId",
          "type": "uint256"
        }
      ],
      "name": "approve",
      "outputs": [],
      "stateMutability": "nonpayable",
      "type": "function"
    },
    {
      "inputs": [
        {
          "internalType": "address",
          "name": "owner",
          "type": "address"
        }
      ],
      "name": "balanceOf",
      "outputs": [
        {
          "internalType": "uint256",
          "name": "",
          "type": "uint256"
        }
      ],
      "stateMutability": "view",
      "type": "function",
      "constant": true
    },
    {
      "inputs": [
        {
          "internalType": "uint256",
          "name": "tokenId",
          "type": "uint256"
        }
      ],
      "name": "getApproved",
      "outputs": [
        {
          "internalType": "address",
          "name": "",
          "type": "address"
        }
      ],
      "stateMutability": "view",
      "type": "function",
      "constant": true
    },
    {
      "inputs": [
        {
          "internalType": "address",
          "name": "owner",
          "type": "address"
        },
        {
          "internalType": "address",
          "name": "operator",
          "type": "address"
        }
      ],
      "name": "isApprovedForAll",
      "outputs": [
        {
          "internalType": "bool",
          "name": "",
          "type": "bool"
        }
      ],
      "stateMutability": "view",
      "type": "function",
      "constant": true
    },
    {
      "inputs": [],
      "name": "maxSupply",
      "outputs": [
        {
          "internalType": "uint16",
          "name": "",
          "type": "uint16"
        }
      ],
      "stateMutability": "view",
      "type": "function",
      "constant": true
    },
    {
      "inputs": [],
      "name": "mintPrice",
      "outputs": [
        {
          "internalType": "uint256",
          "name": "",
          "type": "uint256"
        }
      ],
      "stateMutability": "view",
      "type": "function",
      "constant": true
    },
    {
      "inputs": [],
      "name": "name",
      "outputs": [
        {
          "internalType": "string",
          "name": "",
          "type": "string"
        }
      ],
      "stateMutability": "view",
      "type": "function",
      "constant": true
    },
    {
      "inputs": [],
      "name": "owner",
      "outputs": [
        {
          "internalType": "address",
          "name": "",
          "type": "address"
        }
      ],
      "stateMutability": "view",
      "type": "function",
      "constant": true
    },
    {
      "inputs": [
        {
          "internalType": "uint256",
          "name": "tokenId",
          "type": "uint256"
        }
      ],
      "name": "ownerOf",
      "outputs": [
        {
          "internalType": "address",
          "name": "",
          "type": "address"
        }
      ],
      "stateMutability": "view",
      "type": "function",
      "constant": true
    },
    {
      "inputs": [],
      "name": "pUri",
      "outputs": [
        {
          "internalType": "string",
          "name": "",
          "type": "string"
        }
      ],
      "stateMutability": "view",
      "type": "function",
      "constant": true
    },
    {
      "inputs": [],
      "name": "publicSale",
      "outputs": [
        {
          "internalType": "bool",
          "name": "",
          "type": "bool"
        }
      ],
      "stateMutability": "view",
      "type": "function",
      "constant": true
    },
    {
      "inputs": [],
      "name": "renounceOwnership",
      "outputs": [],
      "stateMutability": "nonpayable",
      "type": "function"
    },
    {
      "inputs": [],
      "name": "revealed",
      "outputs": [
        {
          "internalType": "bool",
          "name": "",
          "type": "bool"
        }
      ],
      "stateMutability": "view",
      "type": "function",
      "constant": true
    },
    {
      "inputs": [],
      "name": "root",
      "outputs": [
        {
          "internalType": "bytes32",
          "name": "",
          "type": "bytes32"
        }
      ],
      "stateMutability": "view",
      "type": "function",
      "constant": true
    },
    {
      "inputs": [
        {
          "internalType": "address",
          "name": "from",
          "type": "address"
        },
        {
          "internalType": "address",
          "name": "to",
          "type": "address"
        },
        {
          "internalType": "uint256",
          "name": "tokenId",
          "type": "uint256"
        }
      ],
      "name": "safeTransferFrom",
      "outputs": [],
      "stateMutability": "nonpayable",
      "type": "function"
    },
    {
      "inputs": [
        {
          "internalType": "address",
          "name": "from",
          "type": "address"
        },
        {
          "internalType": "address",
          "name": "to",
          "type": "address"
        },
        {
          "internalType": "uint256",
          "name": "tokenId",
          "type": "uint256"
        },
        {
          "internalType": "bytes",
          "name": "_data",
          "type": "bytes"
        }
      ],
      "name": "safeTransferFrom",
      "outputs": [],
      "stateMutability": "nonpayable",
      "type": "function"
    },
    {
      "inputs": [
        {
          "internalType": "address",
          "name": "operator",
          "type": "address"
        },
        {
          "internalType": "bool",
          "name": "approved",
          "type": "bool"
        }
      ],
      "name": "setApprovalForAll",
      "outputs": [],
      "stateMutability": "nonpayable",
      "type": "function"
    },
    {
      "inputs": [
        {
          "internalType": "bytes4",
          "name": "interfaceId",
          "type": "bytes4"
        }
      ],
      "name": "supportsInterface",
      "outputs": [
        {
          "internalType": "bool",
          "name": "",
          "type": "bool"
        }
      ],
      "stateMutability": "view",
      "type": "function",
      "constant": true
    },
    {
      "inputs": [],
      "name": "symbol",
      "outputs": [
        {
          "internalType": "string",
          "name": "",
          "type": "string"
        }
      ],
      "stateMutability": "view",
      "type": "function",
      "constant": true
    },
    {
      "inputs": [
        {
          "internalType": "address",
          "name": "from",
          "type": "address"
        },
        {
          "internalType": "address",
          "name": "to",
          "type": "address"
        },
        {
          "internalType": "uint256",
          "name": "tokenId",
          "type": "uint256"
        }
      ],
      "name": "transferFrom",
      "outputs": [],
      "stateMutability": "nonpayable",
      "type": "function"
    },
    {
      "inputs": [
        {
          "internalType": "address",
          "name": "newOwner",
          "type": "address"
        }
      ],
      "name": "transferOwnership",
      "outputs": [],
      "stateMutability": "nonpayable",
      "type": "function"
    },
    {
      "inputs": [],
      "name": "uri",
      "outputs": [
        {
          "internalType": "string",
          "name": "",
          "type": "string"
        }
      ],
      "stateMutability": "view",
      "type": "function",
      "constant": true
    },
    {
      "inputs": [],
      "name": "whitelistPrice",
      "outputs": [
        {
          "internalType": "uint256",
          "name": "",
          "type": "uint256"
        }
      ],
      "stateMutability": "view",
      "type": "function",
      "constant": true
    },
    {
      "inputs": [
        {
          "internalType": "bytes32[]",
          "name": "_proof",
          "type": "bytes32[]"
        }
      ],
      "name": "whitelistMint",
      "outputs": [],
      "stateMutability": "payable",
      "type": "function",
      "payable": true
    },
    {
      "inputs": [],
      "name": "publicMint",
      "outputs": [],
      "stateMutability": "payable",
      "type": "function",
      "payable": true
    },
    {
      "inputs": [
        {
          "internalType": "address[]",
          "name": "_addresses",
          "type": "address[]"
        },
        {
          "internalType": "uint8",
          "name": "_x",
          "type": "uint8"
        }
      ],
      "name": "sharkDrop",
      "outputs": [],
      "stateMutability": "nonpayable",
      "type": "function"
    },
    {
      "inputs": [],
      "name": "sharkReveal",
      "outputs": [],
      "stateMutability": "nonpayable",
      "type": "function"
    },
    {
      "inputs": [],
      "name": "switchToPublic",
      "outputs": [],
      "stateMutability": "nonpayable",
      "type": "function"
    },
    {
      "inputs": [],
      "name": "withdraw",
      "outputs": [],
      "stateMutability": "nonpayable",
      "type": "function"
    },
    {
      "inputs": [],
      "name": "totalSupply",
      "outputs": [
        {
          "internalType": "uint256",
          "name": "",
          "type": "uint256"
        }
      ],
      "stateMutability": "view",
      "type": "function",
      "constant": true
    },
    {
      "inputs": [
        {
          "internalType": "bytes32",
          "name": "_x",
          "type": "bytes32"
        }
      ],
      "name": "updateRoot",
      "outputs": [],
      "stateMutability": "nonpayable",
      "type": "function"
    },
    {
      "inputs": [
        {
          "internalType": "uint256",
          "name": "tokenId",
          "type": "uint256"
        }
      ],
      "name": "tokenURI",
      "outputs": [
        {
          "internalType": "string",
          "name": "",
          "type": "string"
        }
      ],
      "stateMutability": "view",
      "type": "function",
      "constant": true
    },
    {
      "inputs": [
        {
          "internalType": "string",
          "name": "_uri",
          "type": "string"
        }
      ],
      "name": "setBaseUri",
      "outputs": [],
      "stateMutability": "nonpayable",
      "type": "function"
    },
    {
      "inputs": [
        {
          "internalType": "string",
          "name": "_uri",
          "type": "string"
        }
      ],
      "name": "setPreReveal",
      "outputs": [],
      "stateMutability": "nonpayable",
      "type": "function"
    }
  ],
  "bytecode": "0x608060405260078054600160a060020a031990811673e40c8dea5edab02c3b778605cf7b9dd1301062d01790915560088054821673ac4bc126ea4d2a1e2be965f0811c3c51e1817f911790556009805490911673f21df340812629d44264474d478be0215ea60eb617905566470de4df820000600a55666a94d74f430000600b55600c805461ffff19166108ae1790553480156200009c57600080fd5b506040518060400160405280600981526020017f5a4950536861726b7300000000000000000000000000000000000000000000008152506040518060400160405280600481526020017f5a4950530000000000000000000000000000000000000000000000000000000081525081600090816200011a91906200028b565b5060016200012982826200028b565b50505062000158620001496200015e640100000000026401000000009004565b64010000000062000162810204565b6200035e565b3390565b60068054600160a060020a03838116600160a060020a0319831681179093556040519116919082907f8be0079c531659141344cd1fd0a4f28419497f9722a3daafe3b4186f6b6457e090600090a35050565b7f4e487b7100000000000000000000000000000000000000000000000000000000600052604160045260246000fd5b600281046001821680620001f857607f821691505b60208210810362000232577f4e487b7100000000000000000000000000000000000000000000000000000000600052602260045260246000fd5b50919050565b601f82111562000286576000818152602081206020601f86010481016020861015620002615750805b6020601f860104820191505b8181101562000282578281556001016200026d565b5050505b505050565b815167ffffffffffffffff811115620002a857620002a8620001b4565b620002c081620002b98454620001e3565b8462000238565b602080601f831160018114620002fc5760008415620002df5750858301515b60028086026008870290910a600019041982161786555062000282565b600085815260208120601f198616915b828110156200032d578886015182559484019460019091019084016200030c565b50858210156200034e57878501516008601f88160260020a60001904191681555b5050505050600202600101905550565b612b3a806200036e6000396000f3fe608060405260043610610236576000357c010000000000000000000000000000000000000000000000000000000090048063715018a61161013a578063c87b56dd116100cd578063eac989f81161009c578063f2fde38b11610081578063f2fde38b1461060a578063f5112ef91461062a578063fc1a1c361461064a57600080fd5b8063eac989f8146105df578063ebf0c717146105f457600080fd5b8063c87b56dd14610528578063d5abeb0114610548578063e985e9c514610576578063e9d2e74c146105bf57600080fd5b80639f64fdb0116101095780639f64fdb0146104b3578063a0bcfc7f146104c8578063a22cb465146104e8578063b88d4fde1461050857600080fd5b8063715018a6146104565780638da5cb5b1461046b5780638fd0aeb21461048957806395d89b411461049e57600080fd5b806326092b83116101cd57806342842e0e1161019c5780636352211e116101815780636352211e146104005780636817c76c1461042057806370a082311461043657600080fd5b806342842e0e146103c657806351830227146103e657600080fd5b806326092b831461036457806333bc1c5c1461036c578063372f657c1461039e5780633ccfd60b146103b157600080fd5b80630f188151116102095780630f188151146102ec57806318160ddd1461030157806321ff99701461032457806323b872dd1461034457600080fd5b806301ffc9a71461023b57806306fdde0314610270578063081812fc14610292578063095ea7b3146102ca575b600080fd5b34801561024757600080fd5b5061025b610256366004612357565b610660565b60405190151581526020015b60405180910390f35b34801561027c57600080fd5b50610285610745565b60405161026791906123c4565b34801561029e57600080fd5b506102b26102ad3660046123d7565b6107d7565b604051600160a060020a039091168152602001610267565b3480156102d657600080fd5b506102ea6102e5366004612407565b61088a565b005b3480156102f857600080fd5b506102856109e9565b34801561030d57600080fd5b50610316610a77565b604051908152602001610267565b34801561033057600080fd5b506102ea61033f3660046123d7565b610a87565b34801561035057600080fd5b506102ea61035f366004612431565b610aee565b6102ea610b7d565b34801561037857600080fd5b5060095461025b9074010000000000000000000000000000000000000000900460ff1681565b6102ea6103ac3660046124b8565b610dae565b3480156103bd57600080fd5b506102ea611096565b3480156103d257600080fd5b506102ea6103e1366004612431565b6111d2565b3480156103f257600080fd5b5060105461025b9060ff1681565b34801561040c57600080fd5b506102b261041b3660046123d7565b6111ed565b34801561042c57600080fd5b50610316600b5481565b34801561044257600080fd5b506103166104513660046124fa565b611280565b34801561046257600080fd5b506102ea611322565b34801561047757600080fd5b50600654600160a060020a03166102b2565b34801561049557600080fd5b506102ea611390565b3480156104aa57600080fd5b5061028561143f565b3480156104bf57600080fd5b506102ea61144e565b3480156104d457600080fd5b506102ea6104e33660046125ba565b6114c4565b3480156104f457600080fd5b506102ea610503366004612603565b611536565b34801561051457600080fd5b506102ea61052336600461263f565b611541565b34801561053457600080fd5b506102856105433660046123d7565b6115d7565b34801561055457600080fd5b50600c546105639061ffff1681565b60405161ffff9091168152602001610267565b34801561058257600080fd5b5061025b6105913660046126bb565b600160a060020a03918216600090815260056020908152604080832093909416825291909152205460ff1690565b3480156105cb57600080fd5b506102ea6105da3660046126ee565b611627565b3480156105eb57600080fd5b50610285611758565b34801561060057600080fd5b50610316600f5481565b34801561061657600080fd5b506102ea6106253660046124fa565b611765565b34801561063657600080fd5b506102ea6106453660046125ba565b611857565b34801561065657600080fd5b50610316600a5481565b60007fffffffff0000000000000000000000000000000000000000000000000000000082167f80ac58cd0000000000000000000000000000000000000000000000000000000014806106f357507fffffffff0000000000000000000000000000000000000000000000000000000082167f5b5e139f00000000000000000000000000000000000000000000000000000000145b8061073f57507f01ffc9a7000000000000000000000000000000000000000000000000000000007fffffffff000000000000000000000000000000000000000000000000000000008316145b92915050565b6060600080546107549061274b565b80601f01602080910402602001604051908101604052809291908181526020018280546107809061274b565b80156107cd5780601f106107a2576101008083540402835291602001916107cd565b820191906000526020600020905b8154815290600101906020018083116107b057829003601f168201915b5050505050905090565b600081815260026020526040812054600160a060020a031661086e57604051600080516020612ae5833981519152815260206004820152602c60248201527f4552433732313a20617070726f76656420717565727920666f72206e6f6e657860448201527f697374656e7420746f6b656e000000000000000000000000000000000000000060648201526084015b60405180910390fd5b50600090815260046020526040902054600160a060020a031690565b6000610895826111ed565b905080600160a060020a031683600160a060020a03160361092657604051600080516020612ae5833981519152815260206004820152602160248201527f4552433732313a20617070726f76616c20746f2063757272656e74206f776e6560448201527f72000000000000000000000000000000000000000000000000000000000000006064820152608401610865565b33600160a060020a03821614806109605750600160a060020a038116600090815260056020908152604080832033845290915290205460ff165b6109da57604051600080516020612ae5833981519152815260206004820152603860248201527f4552433732313a20617070726f76652063616c6c6572206973206e6f74206f7760448201527f6e6572206e6f7220617070726f76656420666f7220616c6c00000000000000006064820152608401610865565b6109e483836118c5565b505050565b600e80546109f69061274b565b80601f0160208091040260200160405190810160405280929190818152602001828054610a229061274b565b8015610a6f5780601f10610a4457610100808354040283529160200191610a6f565b820191906000526020600020905b815481529060010190602001808311610a5257829003601f168201915b505050505081565b6000610a8260115490565b905090565b600654600160a060020a03163314610ae957604051600080516020612ae5833981519152815260206004820181905260248201527f4f776e61626c653a2063616c6c6572206973206e6f7420746865206f776e65726044820152606401610865565b600f55565b610af83382611940565b610b7257604051600080516020612ae5833981519152815260206004820152603160248201527f4552433732313a207472616e736665722063616c6c6572206973206e6f74206f60448201527f776e6572206e6f7220617070726f7665640000000000000000000000000000006064820152608401610865565b6109e4838383611a50565b600b54610b8b903490611c3a565b15610be057604051600080516020612ae5833981519152815260206004820181905260248201527f506c65617365206d696e74207468726f7567682074686520776562736974652e6044820152606401610865565b6000345b600b548110610c0f57600b54610bfb908290611c4d565b9050610c08826001611c59565b9150610be4565b33600090815260136020526040902054601490610c2c9084611c59565b1115610ca857604051600080516020612ae5833981519152815260206004820152602e60248201527f4d6178206d696e74207065722077616c6c65742069732032302e20547279206160448201527f6e6f746865722077616c6c65742e0000000000000000000000000000000000006064820152608401610865565b600c5461ffff16610cc283610cbc60115490565b90611c59565b1115610d3e57604051600080516020612ae5833981519152815260206004820152602d60248201527f43757272656e74204d696e74204c696d697420526561636865642e205472792060448201527f6d696e74696e67206c6573732e000000000000000000000000000000000000006064820152608401610865565b60005b828160ff161015610d7e57610d5a601180546001019055565b610d6c33610d6760115490565b611c65565b80610d76816127cd565b915050610d41565b5033600090815260136020526040902054610d9a9083906127ec565b336000908152601360205260409020555050565b3360009081526012602052604090205460ff161515600103610dcf57600080fd5b610e4182828080602002602001604051908101604052809392919081815260200183836020028082843760009201919091525050600f546040516c0100000000000000000000000033026020820152909250603401905060405160208183030381529060405280519060200120611dc4565b610ebb57604051600080516020612ae5833981519152815260206004820152603d60248201527f546869732077616c6c6574206973206e6f7420726567697374657265642e205460448201527f727920616761696e207769746820616e6f746865722077616c6c65742e0000006064820152608401610865565b6000345b600a548110610eea57600a54610ed6908290611c4d565b9050610ee3826001611c59565b9150610ebf565b33600090815260136020526040902054601490610f079084611c59565b1115610f8357604051600080516020612ae5833981519152815260206004820152602e60248201527f4d6178206d696e74207065722077616c6c65742069732032302e20547279206160448201527f6e6f746865722077616c6c65742e0000000000000000000000000000000000006064820152608401610865565b600c5461ffff16610f9783610cbc60115490565b111561101357604051600080516020612ae5833981519152815260206004820152602d60248201527f43757272656e74204d696e74204c696d697420526561636865642e205472792060448201527f6d696e74696e67206c6573732e000000000000000000000000000000000000006064820152608401610865565b60005b828160ff16101561104e5761102f601180546001019055565b61103c33610d6760115490565b80611046816127cd565b915050611016565b503360009081526013602052604090205461106a9083906127ec565b336000908152601360209081526040808320939093556012905220805460ff1916600117905550505050565b600654600160a060020a031633146110f857604051600080516020612ae5833981519152815260206004820181905260248201527f4f776e61626c653a2063616c6c6572206973206e6f7420746865206f776e65726044820152606401610865565b30316000611107826064611dda565b600754909150600160a060020a03166108fc611124836004611de6565b6040518115909202916000818181858888f1935050505015801561114c573d6000803e3d6000fd5b50600954600160a060020a03166108fc61116783600b611de6565b6040518115909202916000818181858888f1935050505015801561118f573d6000803e3d6000fd5b50600854600160a060020a03166108fc6111aa836055611de6565b6040518115909202916000818181858888f193505050501580156109e4573d6000803e3d6000fd5b6109e483838360405180602001604052806000815250611541565b600081815260026020526040812054600160a060020a03168061073f57604051600080516020612ae5833981519152815260206004820152602960248201527f4552433732313a206f776e657220717565727920666f72206e6f6e657869737460448201527f656e7420746f6b656e00000000000000000000000000000000000000000000006064820152608401610865565b6000600160a060020a03821661130657604051600080516020612ae5833981519152815260206004820152602a60248201527f4552433732313a2062616c616e636520717565727920666f7220746865207a6560448201527f726f2061646472657373000000000000000000000000000000000000000000006064820152608401610865565b50600160a060020a031660009081526003602052604090205490565b600654600160a060020a0316331461138457604051600080516020612ae5833981519152815260206004820181905260248201527f4f776e61626c653a2063616c6c6572206973206e6f7420746865206f776e65726044820152606401610865565b61138e6000611df2565b565b600654600160a060020a031633146113f257604051600080516020612ae5833981519152815260206004820181905260248201527f4f776e61626c653a2063616c6c6572206973206e6f7420746865206f776e65726044820152606401610865565b600980547fffffffffffffffffffffff00ffffffffffffffffffffffffffffffffffffffff8116740100000000000000000000000000000000000000009182900460ff1615909102179055565b6060600180546107549061274b565b600654600160a060020a031633146114b057604051600080516020612ae5833981519152815260206004820181905260248201527f4f776e61626c653a2063616c6c6572206973206e6f7420746865206f776e65726044820152606401610865565b6010805460ff19811660ff90911615179055565b600654600160a060020a0316331461152657604051600080516020612ae5833981519152815260206004820181905260248201527f4f776e61626c653a2063616c6c6572206973206e6f7420746865206f776e65726044820152606401610865565b600d611532828261284d565b5050565b611532338383611e51565b61154b3383611940565b6115c557604051600080516020612ae5833981519152815260206004820152603160248201527f4552433732313a207472616e736665722063616c6c6572206973206e6f74206f60448201527f776e6572206e6f7220617070726f7665640000000000000000000000000000006064820152608401610865565b6115d184848484611f27565b50505050565b60105460609060ff161561161757600d6115f083611fb8565b604051602001611601929190612913565b6040516020818303038152906040529050919050565b600e6115f083611fb8565b919050565b600654600160a060020a0316331461168957604051600080516020612ae5833981519152815260206004820181905260248201527f4f776e61626c653a2063616c6c6572206973206e6f7420746865206f776e65726044820152606401610865565b60005b828110156115d15760005b8260ff16811015611745576116b0601180546001019055565b6116e28585848181106116c5576116c56129c2565b90506020020160208101906116da91906124fa565b601154611c65565b6117326001601360008888878181106116fd576116fd6129c2565b905060200201602081019061171291906124fa565b600160a060020a0316815260208101919091526040016000205490611c59565b508061173d816129f1565b915050611697565b5080611750816129f1565b91505061168c565b600d80546109f69061274b565b600654600160a060020a031633146117c757604051600080516020612ae5833981519152815260206004820181905260248201527f4f776e61626c653a2063616c6c6572206973206e6f7420746865206f776e65726044820152606401610865565b600160a060020a03811661184b57604051600080516020612ae5833981519152815260206004820152602660248201527f4f776e61626c653a206e6577206f776e657220697320746865207a65726f206160448201527f64647265737300000000000000000000000000000000000000000000000000006064820152608401610865565b61185481611df2565b50565b600654600160a060020a031633146118b957604051600080516020612ae5833981519152815260206004820181905260248201527f4f776e61626c653a2063616c6c6572206973206e6f7420746865206f776e65726044820152606401610865565b600e611532828261284d565b6000818152600460205260409020805473ffffffffffffffffffffffffffffffffffffffff1916600160a060020a0384169081179091558190611907826111ed565b600160a060020a03167f8c5be1e5ebec7d5bd14f71427d1e84f3dd0314c0f7b2291e5b200ac8c7c3b92560405160405180910390a45050565b600081815260026020526040812054600160a060020a03166119d257604051600080516020612ae5833981519152815260206004820152602c60248201527f4552433732313a206f70657261746f7220717565727920666f72206e6f6e657860448201527f697374656e7420746f6b656e00000000000000000000000000000000000000006064820152608401610865565b60006119dd836111ed565b905080600160a060020a031684600160a060020a03161480611a245750600160a060020a0380821660009081526005602090815260408083209388168352929052205460ff165b80611a48575083600160a060020a0316611a3d846107d7565b600160a060020a0316145b949350505050565b82600160a060020a0316611a63826111ed565b600160a060020a031614611ae757604051600080516020612ae5833981519152815260206004820152602560248201527f4552433732313a207472616e736665722066726f6d20696e636f72726563742060448201527f6f776e65720000000000000000000000000000000000000000000000000000006064820152608401610865565b600160a060020a038216611b6a57604051600080516020612ae58339815191528152602060048201526024808201527f4552433732313a207472616e7366657220746f20746865207a65726f2061646460448201527f72657373000000000000000000000000000000000000000000000000000000006064820152608401610865565b611b756000826118c5565b600160a060020a0383166000908152600360205260408120805460019290611b9e908490612a0a565b9091555050600160a060020a0382166000908152600360205260408120805460019290611bcc9084906127ec565b9091555050600081815260026020526040808220805473ffffffffffffffffffffffffffffffffffffffff1916600160a060020a0386811691821790925591518493918716917fddf252ad1be2c89b69c2b068fc378daa952ba7f163c4a11628f55a4df523b3ef91a4505050565b6000611c468284612a4c565b9392505050565b6000611c468284612a0a565b6000611c4682846127ec565b600160a060020a038216611cc357604051600080516020612ae5833981519152815260206004820181905260248201527f4552433732313a206d696e7420746f20746865207a65726f20616464726573736044820152606401610865565b600081815260026020526040902054600160a060020a031615611d3057604051600080516020612ae5833981519152815260206004820152601c60248201527f4552433732313a20746f6b656e20616c7265616479206d696e746564000000006044820152606401610865565b600160a060020a0382166000908152600360205260408120805460019290611d599084906127ec565b9091555050600081815260026020526040808220805473ffffffffffffffffffffffffffffffffffffffff1916600160a060020a03861690811790915590518392907fddf252ad1be2c89b69c2b068fc378daa952ba7f163c4a11628f55a4df523b3ef908290a45050565b600082611dd1858461210c565b14949350505050565b6000611c468284612a60565b6000611c468284612a74565b60068054600160a060020a0383811673ffffffffffffffffffffffffffffffffffffffff19831681179093556040519116919082907f8be0079c531659141344cd1fd0a4f28419497f9722a3daafe3b4186f6b6457e090600090a35050565b81600160a060020a031683600160a060020a031603611eba57604051600080516020612ae5833981519152815260206004820152601960248201527f4552433732313a20617070726f766520746f2063616c6c6572000000000000006044820152606401610865565b600160a060020a03838116600081815260056020908152604080832094871680845294825291829020805460ff191686151590811790915591519182527f17307eab39ab6107e8899845ad3d59bd9653f200f220920489ca2b5937696c31910160405180910390a3505050565b611f32848484611a50565b611f3e84848484612180565b6115d157604051600080516020612ae5833981519152815260206004820152603260248201527f4552433732313a207472616e7366657220746f206e6f6e20455243373231526560448201527f63656976657220696d706c656d656e74657200000000000000000000000000006064820152608401610865565b606081600003611ffb57505060408051808201909152600181527f3000000000000000000000000000000000000000000000000000000000000000602082015290565b8160005b8115612025578061200f816129f1565b915061201e9050600a83612a60565b9150611fff565b60008167ffffffffffffffff81111561204057612040612515565b6040519080825280601f01601f19166020018201604052801561206a576020820181803683370190505b5090505b8415611a485761207f600183612a0a565b915061208c600a86612a4c565b6120979060306127ec565b7f0100000000000000000000000000000000000000000000000000000000000000028183815181106120cb576120cb6129c2565b60200101907effffffffffffffffffffffffffffffffffffffffffffffffffffffffffffff1916908160001a905350612105600a86612a60565b945061206e565b600081815b845181101561217857600085828151811061212e5761212e6129c2565b602002602001015190508083116121545760008381526020829052604090209250612165565b600081815260208490526040902092505b5080612170816129f1565b915050612111565b509392505050565b6000600160a060020a0384163b1561231e576040517f150b7a02000000000000000000000000000000000000000000000000000000008152600160a060020a0385169063150b7a02906121dd903390899088908890600401612a8b565b6020604051808303816000875af1925050508015612218575060408051601f3d908101601f1916820190925261221591810190612ac7565b60015b6122d3573d808015612246576040519150601f19603f3d011682016040523d82523d6000602084013e61224b565b606091505b5080516000036122cb57604051600080516020612ae5833981519152815260206004820152603260248201527f4552433732313a207472616e7366657220746f206e6f6e20455243373231526560448201527f63656976657220696d706c656d656e74657200000000000000000000000000006064820152608401610865565b805181602001fd5b7fffffffff00000000000000000000000000000000000000000000000000000000167f150b7a0200000000000000000000000000000000000000000000000000000000149050611a48565b506001949350505050565b7fffffffff000000000000000000000000000000000000000000000000000000008116811461185457600080fd5b60006020828403121561236957600080fd5b8135611c4681612329565b60005b8381101561238f578181015183820152602001612377565b50506000910152565b600081518084526123b0816020860160208601612374565b601f01601f19169290920160200192915050565b602081526000611c466020830184612398565b6000602082840312156123e957600080fd5b5035919050565b8035600160a060020a038116811461162257600080fd5b6000806040838503121561241a57600080fd5b612423836123f0565b946020939093013593505050565b60008060006060848603121561244657600080fd5b61244f846123f0565b925061245d602085016123f0565b9150604084013590509250925092565b60008083601f84011261247f57600080fd5b50813567ffffffffffffffff81111561249757600080fd5b60208301915083602080830285010111156124b157600080fd5b9250929050565b600080602083850312156124cb57600080fd5b823567ffffffffffffffff8111156124e257600080fd5b6124ee8582860161246d565b90969095509350505050565b60006020828403121561250c57600080fd5b611c46826123f0565b7f4e487b7100000000000000000000000000000000000000000000000000000000600052604160045260246000fd5b600067ffffffffffffffff8084111561255f5761255f612515565b604051601f8501601f19908116603f0116810190828211818310171561258757612587612515565b816040528093508581528686860111156125a057600080fd5b858560208301376000602087830101525050509392505050565b6000602082840312156125cc57600080fd5b813567ffffffffffffffff8111156125e357600080fd5b8201601f810184136125f457600080fd5b611a4884823560208401612544565b6000806040838503121561261657600080fd5b61261f836123f0565b91506020830135801515811461263457600080fd5b809150509250929050565b6000806000806080858703121561265557600080fd5b61265e856123f0565b935061266c602086016123f0565b925060408501359150606085013567ffffffffffffffff81111561268f57600080fd5b8501601f810187136126a057600080fd5b6126af87823560208401612544565b91505092959194509250565b600080604083850312156126ce57600080fd5b6126d7836123f0565b91506126e5602084016123f0565b90509250929050565b60008060006040848603121561270357600080fd5b833567ffffffffffffffff81111561271a57600080fd5b6127268682870161246d565b909450925050602084013560ff8116811461274057600080fd5b809150509250925092565b60028104600182168061275f57607f821691505b602082108103612798577f4e487b7100000000000000000000000000000000000000000000000000000000600052602260045260246000fd5b50919050565b7f4e487b7100000000000000000000000000000000000000000000000000000000600052601160045260246000fd5b600060ff821660ff81036127e3576127e361279e565b60010192915050565b8082018082111561073f5761073f61279e565b601f8211156109e4576000818152602081206020601f860104810160208610156128265750805b6020601f860104820191505b8181101561284557828155600101612832565b505050505050565b815167ffffffffffffffff81111561286757612867612515565b61287b81612875845461274b565b846127ff565b602080601f8311600181146128b457600084156128985750858301515b60028086026008870290910a6000190419821617865550612845565b600085815260208120601f198616915b828110156128e3578886015182559484019460019091019084016128c4565b508582101561290357878501516008601f88160260020a60001904191681555b5050505050600202600101905550565b60008084546129218161274b565b60018281168015612939576001811461294e5761297d565b60ff198416875282151583028701945061297d565b8860005260208060002060005b858110156129745781548a82015290840190820161295b565b50505082870194505b505050508351612991818360208801612374565b7f2e6a736f6e0000000000000000000000000000000000000000000000000000009101908152600501949350505050565b7f4e487b7100000000000000000000000000000000000000000000000000000000600052603260045260246000fd5b600060018201612a0357612a0361279e565b5060010190565b8181038181111561073f5761073f61279e565b7f4e487b7100000000000000000000000000000000000000000000000000000000600052601260045260246000fd5b600082612a5b57612a5b612a1d565b500690565b600082612a6f57612a6f612a1d565b500490565b808202811582820484141761073f5761073f61279e565b6000600160a060020a03808716835280861660208401525083604083015260806060830152612abd6080830184612398565b9695505050505050565b600060208284031215612ad957600080fd5b8151611c468161232956fe08c379a000000000000000000000000000000000000000000000000000000000a264697066735822122034f9d4cb73ef975fe82b8df591e6f190516a7c5a23909dd8739f70adb8cb9ef364736f6c63430008110033",
  "immutableReferences": {},
  "source": "// SPDX-License-Identifier: MIT\npragma solidity >=0.4.21 <9.0.0;\n\n// Relevant Libraries\nimport \"@openzeppelin/contracts/token/ERC721/ERC721.sol\";\nimport \"@openzeppelin/contracts/access/Ownable.sol\";\nimport \"@openzeppelin/contracts/utils/Counters.sol\";\nimport \"@openzeppelin/contracts/utils/math/SafeMath.sol\";\nimport \"@openzeppelin/contracts/utils/Strings.sol\";\nimport \"@openzeppelin/contracts/utils/cryptography/MerkleProof.sol\";\n\ncontract ZIPSharks is ERC721, Ownable {\n    // Utils Used\n    using Counters for Counters.Counter;\n    using SafeMath for uint256;\n    using Strings for uint256;\n\n    //Team\n    address payable kTuck = payable(0xe40c8deA5EdAB02C3B778605cf7b9dD1301062d0);\n    address payable samurai =\n        payable(0xac4Bc126Ea4D2a1e2bE965f0811c3c51E1817F91);\n    address payable mufasa =\n        payable(0xf21df340812629D44264474d478be0215Ea60eb6);\n\n    // Properties\n    bool public publicSale;\n    uint256 public whitelistPrice = 0.02 ether;\n    uint256 public mintPrice = 0.03 ether;\n    uint16 public maxSupply = 2222;\n    string public uri;\n    string public pUri;\n\n    bytes32 public root;\n    bool public revealed;\n\n    Counters.Counter private _tokenIdTracker;\n\n    // Mappings\n    mapping(address => bool) whitelistClaimed;\n    mapping(address => uint256) sharksMinted;\n\n    constructor() ERC721(\"ZIPSharks\", \"ZIPS\") {}\n\n    // Modifiers\n    modifier whitelistConfig() {\n        require(whitelistClaimed[msg.sender] != true);\n        _;\n    }\n\n    function whitelistMint(bytes32[] calldata _proof)\n        public\n        payable\n        whitelistConfig\n    {\n        require(\n            (\n                MerkleProof.verify(\n                    _proof,\n                    root,\n                    keccak256(abi.encodePacked(msg.sender))\n                )\n            ),\n            \"This wallet is not registered. Try again with another wallet.\"\n        );\n\n        uint256 _amount = 0;\n        uint256 _balance = msg.value;\n\n        // Uses the balance sent to generate set number of NFTs\n        while (_balance >= whitelistPrice) {\n            _balance = _balance.sub(whitelistPrice);\n            _amount = _amount.add(1);\n        }\n\n        // Limits the number minted per wallet\n        require(\n            sharksMinted[msg.sender].add(_amount) <= 20,\n            \"Max mint per wallet is 20. Try another wallet.\"\n        );\n\n        // Limits the TokenID to MaxSupply\n        require(\n            (_tokenIdTracker.current().add(_amount)) <= maxSupply,\n            \"Current Mint Limit Reached. Try minting less.\"\n        );\n\n        // Runs a for loop to continue minting for the set amount asked.\n        for (uint8 counter = 0; counter < _amount; counter++) {\n            // 1.Mints the NFT to the current tokenID\n            // 2. Maps the current tokenChoice to the current URI\n            // 3. Adds one to tokenIDtracker\n            _tokenIdTracker.increment();\n            _mint(msg.sender, _tokenIdTracker.current());\n        }\n\n        // WhitelistClaim and MintNumber Recorded\n        sharksMinted[msg.sender] = sharksMinted[msg.sender] + _amount;\n        whitelistClaimed[msg.sender] = true;\n    }\n\n    function publicMint() public payable {\n        require(\n            msg.value.mod(mintPrice) == 0,\n            \"Please mint through the website.\"\n        );\n\n        uint256 _amount = 0;\n        uint256 _balance = msg.value;\n\n        // Uses the balance sent to generate set number of NFTs\n        while (_balance >= mintPrice) {\n            _balance = _balance.sub(mintPrice);\n            _amount = _amount.add(1);\n        }\n\n        // Limits the number minted per wallet\n        require(\n            sharksMinted[msg.sender].add(_amount) <= 20,\n            \"Max mint per wallet is 20. Try another wallet.\"\n        );\n\n        // Limits the TokenID\n        require(\n            (_tokenIdTracker.current().add(_amount)) <= maxSupply,\n            \"Current Mint Limit Reached. Try minting less.\"\n        );\n\n        // Runs a for loop to continue minting for the set amount asked.\n        for (uint8 counter = 0; counter < _amount; counter++) {\n            // 1.Mints the NFT to the current tokenID\n            // 2. Maps the current tokenChoice to the current URI\n            // 3. Adds one to tokenIDtracker\n            _tokenIdTracker.increment();\n            _mint(msg.sender, _tokenIdTracker.current());\n        }\n\n        sharksMinted[msg.sender] = sharksMinted[msg.sender] + _amount;\n    }\n\n    // ADMIN Methods\n\n    // SharkDrop Method\n    function sharkDrop(address[] calldata _addresses, uint8 _x)\n        public\n        onlyOwner\n    {\n        for (uint256 counter = 0; counter < _addresses.length; counter++) {\n            // Mints x amount per wallet inputed\n            for (uint256 n = 0; n < _x; n++) {\n                _tokenIdTracker.increment();\n                _mint(_addresses[counter], _tokenIdTracker.current());\n                sharksMinted[_addresses[counter]].add(1);\n            }\n        }\n    }\n\n    // Reveals Sharks\n    function sharkReveal() public onlyOwner {\n        bool current = revealed;\n        revealed = !current;\n    }\n\n    // Switches sale to public\n    function switchToPublic() public onlyOwner {\n        bool current = publicSale;\n        publicSale = !current;\n    }\n\n    //Withdraw Method\n    function withdraw() public onlyOwner {\n        uint256 _balance = address(this).balance;\n        uint256 _balanceDiv = _balance.div(100);\n        kTuck.transfer(_balanceDiv.mul(4));\n        mufasa.transfer(_balanceDiv.mul(11));\n        samurai.transfer(_balanceDiv.mul(85));\n    }\n\n    // TotalSupply Method\n    function totalSupply() public view returns (uint256) {\n        return _tokenIdTracker.current();\n    }\n\n    // Update Merkle Root\n    function updateRoot(bytes32 _x) public onlyOwner {\n        root = _x;\n    }\n\n    // URI methods\n\n    function tokenURI(uint256 tokenId)\n        public\n        view\n        virtual\n        override\n        returns (string memory)\n    {\n        if (revealed) {\n            return\n                string(\n                    abi.encodePacked(uri, Strings.toString(tokenId), \".json\")\n                );\n        } else {\n            return\n                string(\n                    abi.encodePacked(pUri, Strings.toString(tokenId), \".json\")\n                );\n        }\n    }\n\n    function setBaseUri(string memory _uri) public onlyOwner {\n        uri = _uri;\n    }\n\n    function setPreReveal(string memory _uri) public onlyOwner {\n        pUri = _uri;\n    }\n\n    // OVERRIDE BaseURI Methods\n    function _baseURI() internal view virtual override returns (string memory) {\n        return uri;\n    }\n}\n",
  "sourcePath": "/Users/mustafaboorenie/zipsNFT/zipSharks/contracts/ZIPSharks.sol",
  "compiler": {
    "name": "solc",
    "version": "0.8.17+commit.8df45f5f.Emscripten.clang"
  },
  "schemaVersion": "3.4.3",
  "updatedAt": "2022-10-04T02:16:01.452Z",
  "networkType": "ethereum",
  "devdoc": {
    "kind": "dev",
    "methods": {
      "approve(address,uint256)": {
        "details": "See {IERC721-approve}."
      },
      "balanceOf(address)": {
        "details": "See {IERC721-balanceOf}."
      },
      "getApproved(uint256)": {
        "details": "See {IERC721-getApproved}."
      },
      "isApprovedForAll(address,address)": {
        "details": "See {IERC721-isApprovedForAll}."
      },
      "name()": {
        "details": "See {IERC721Metadata-name}."
      },
      "owner()": {
        "details": "Returns the address of the current owner."
      },
      "ownerOf(uint256)": {
        "details": "See {IERC721-ownerOf}."
      },
      "renounceOwnership()": {
        "details": "Leaves the contract without owner. It will not be possible to call `onlyOwner` functions anymore. Can only be called by the current owner. NOTE: Renouncing ownership will leave the contract without an owner, thereby removing any functionality that is only available to the owner."
      },
      "safeTransferFrom(address,address,uint256)": {
        "details": "See {IERC721-safeTransferFrom}."
      },
      "safeTransferFrom(address,address,uint256,bytes)": {
        "details": "See {IERC721-safeTransferFrom}."
      },
      "setApprovalForAll(address,bool)": {
        "details": "See {IERC721-setApprovalForAll}."
      },
      "supportsInterface(bytes4)": {
        "details": "See {IERC165-supportsInterface}."
      },
      "symbol()": {
        "details": "See {IERC721Metadata-symbol}."
      },
      "tokenURI(uint256)": {
        "details": "See {IERC721Metadata-tokenURI}."
      },
      "transferFrom(address,address,uint256)": {
        "details": "See {IERC721-transferFrom}."
      },
      "transferOwnership(address)": {
        "details": "Transfers ownership of the contract to a new account (`newOwner`). Can only be called by the current owner."
      }
    },
    "version": 1
  },
  "userdoc": {
    "kind": "user",
    "methods": {},
    "version": 1
  }
}