{
  "contractName": "ZIPSharks",
  "abi": [
    {
      "inputs": [],
      "stateMutability": "nonpayable",
      "type": "constructor"
    },
    {
      "anonymous": false,
      "inputs": [
        {
          "indexed": true,
          "internalType": "address",
          "name": "owner",
          "type": "address"
        },
        {
          "indexed": true,
          "internalType": "address",
          "name": "approved",
          "type": "address"
        },
        {
          "indexed": true,
          "internalType": "uint256",
          "name": "tokenId",
          "type": "uint256"
        }
      ],
      "name": "Approval",
      "type": "event"
    },
    {
      "anonymous": false,
      "inputs": [
        {
          "indexed": true,
          "internalType": "address",
          "name": "owner",
          "type": "address"
        },
        {
          "indexed": true,
          "internalType": "address",
          "name": "operator",
          "type": "address"
        },
        {
          "indexed": false,
          "internalType": "bool",
          "name": "approved",
          "type": "bool"
        }
      ],
      "name": "ApprovalForAll",
      "type": "event"
    },
    {
      "anonymous": false,
      "inputs": [
        {
          "indexed": true,
          "internalType": "address",
          "name": "previousOwner",
          "type": "address"
        },
        {
          "indexed": true,
          "internalType": "address",
          "name": "newOwner",
          "type": "address"
        }
      ],
      "name": "OwnershipTransferred",
      "type": "event"
    },
    {
      "anonymous": false,
      "inputs": [
        {
          "indexed": true,
          "internalType": "address",
          "name": "from",
          "type": "address"
        },
        {
          "indexed": true,
          "internalType": "address",
          "name": "to",
          "type": "address"
        },
        {
          "indexed": true,
          "internalType": "uint256",
          "name": "tokenId",
          "type": "uint256"
        }
      ],
      "name": "Transfer",
      "type": "event"
    },
    {
      "inputs": [
        {
          "internalType": "address",
          "name": "to",
          "type": "address"
        },
        {
          "internalType": "uint256",
          "name": "tokenId",
          "type": "uint256"
        }
      ],
      "name": "approve",
      "outputs": [],
      "stateMutability": "nonpayable",
      "type": "function"
    },
    {
      "inputs": [
        {
          "internalType": "address",
          "name": "owner",
          "type": "address"
        }
      ],
      "name": "balanceOf",
      "outputs": [
        {
          "internalType": "uint256",
          "name": "",
          "type": "uint256"
        }
      ],
      "stateMutability": "view",
      "type": "function",
      "constant": true
    },
    {
      "inputs": [
        {
          "internalType": "uint256",
          "name": "tokenId",
          "type": "uint256"
        }
      ],
      "name": "getApproved",
      "outputs": [
        {
          "internalType": "address",
          "name": "",
          "type": "address"
        }
      ],
      "stateMutability": "view",
      "type": "function",
      "constant": true
    },
    {
      "inputs": [
        {
          "internalType": "address",
          "name": "owner",
          "type": "address"
        },
        {
          "internalType": "address",
          "name": "operator",
          "type": "address"
        }
      ],
      "name": "isApprovedForAll",
      "outputs": [
        {
          "internalType": "bool",
          "name": "",
          "type": "bool"
        }
      ],
      "stateMutability": "view",
      "type": "function",
      "constant": true
    },
    {
      "inputs": [],
      "name": "maxSupply",
      "outputs": [
        {
          "internalType": "uint16",
          "name": "",
          "type": "uint16"
        }
      ],
      "stateMutability": "view",
      "type": "function",
      "constant": true
    },
    {
      "inputs": [],
      "name": "mintPrice",
      "outputs": [
        {
          "internalType": "uint256",
          "name": "",
          "type": "uint256"
        }
      ],
      "stateMutability": "view",
      "type": "function",
      "constant": true
    },
    {
      "inputs": [],
      "name": "name",
      "outputs": [
        {
          "internalType": "string",
          "name": "",
          "type": "string"
        }
      ],
      "stateMutability": "view",
      "type": "function",
      "constant": true
    },
    {
      "inputs": [],
      "name": "owner",
      "outputs": [
        {
          "internalType": "address",
          "name": "",
          "type": "address"
        }
      ],
      "stateMutability": "view",
      "type": "function",
      "constant": true
    },
    {
      "inputs": [
        {
          "internalType": "uint256",
          "name": "tokenId",
          "type": "uint256"
        }
      ],
      "name": "ownerOf",
      "outputs": [
        {
          "internalType": "address",
          "name": "",
          "type": "address"
        }
      ],
      "stateMutability": "view",
      "type": "function",
      "constant": true
    },
    {
      "inputs": [],
      "name": "publicSale",
      "outputs": [
        {
          "internalType": "bool",
          "name": "",
          "type": "bool"
        }
      ],
      "stateMutability": "view",
      "type": "function",
      "constant": true
    },
    {
      "inputs": [],
      "name": "renounceOwnership",
      "outputs": [],
      "stateMutability": "nonpayable",
      "type": "function"
    },
    {
      "inputs": [],
      "name": "root",
      "outputs": [
        {
          "internalType": "bytes32",
          "name": "",
          "type": "bytes32"
        }
      ],
      "stateMutability": "view",
      "type": "function",
      "constant": true
    },
    {
      "inputs": [
        {
          "internalType": "address",
          "name": "from",
          "type": "address"
        },
        {
          "internalType": "address",
          "name": "to",
          "type": "address"
        },
        {
          "internalType": "uint256",
          "name": "tokenId",
          "type": "uint256"
        }
      ],
      "name": "safeTransferFrom",
      "outputs": [],
      "stateMutability": "nonpayable",
      "type": "function"
    },
    {
      "inputs": [
        {
          "internalType": "address",
          "name": "from",
          "type": "address"
        },
        {
          "internalType": "address",
          "name": "to",
          "type": "address"
        },
        {
          "internalType": "uint256",
          "name": "tokenId",
          "type": "uint256"
        },
        {
          "internalType": "bytes",
          "name": "_data",
          "type": "bytes"
        }
      ],
      "name": "safeTransferFrom",
      "outputs": [],
      "stateMutability": "nonpayable",
      "type": "function"
    },
    {
      "inputs": [
        {
          "internalType": "address",
          "name": "operator",
          "type": "address"
        },
        {
          "internalType": "bool",
          "name": "approved",
          "type": "bool"
        }
      ],
      "name": "setApprovalForAll",
      "outputs": [],
      "stateMutability": "nonpayable",
      "type": "function"
    },
    {
      "inputs": [
        {
          "internalType": "bytes4",
          "name": "interfaceId",
          "type": "bytes4"
        }
      ],
      "name": "supportsInterface",
      "outputs": [
        {
          "internalType": "bool",
          "name": "",
          "type": "bool"
        }
      ],
      "stateMutability": "view",
      "type": "function",
      "constant": true
    },
    {
      "inputs": [],
      "name": "symbol",
      "outputs": [
        {
          "internalType": "string",
          "name": "",
          "type": "string"
        }
      ],
      "stateMutability": "view",
      "type": "function",
      "constant": true
    },
    {
      "inputs": [
        {
          "internalType": "address",
          "name": "from",
          "type": "address"
        },
        {
          "internalType": "address",
          "name": "to",
          "type": "address"
        },
        {
          "internalType": "uint256",
          "name": "tokenId",
          "type": "uint256"
        }
      ],
      "name": "transferFrom",
      "outputs": [],
      "stateMutability": "nonpayable",
      "type": "function"
    },
    {
      "inputs": [
        {
          "internalType": "address",
          "name": "newOwner",
          "type": "address"
        }
      ],
      "name": "transferOwnership",
      "outputs": [],
      "stateMutability": "nonpayable",
      "type": "function"
    },
    {
      "inputs": [],
      "name": "uri",
      "outputs": [
        {
          "internalType": "string",
          "name": "",
          "type": "string"
        }
      ],
      "stateMutability": "view",
      "type": "function",
      "constant": true
    },
    {
      "inputs": [],
      "name": "whitelistPrice",
      "outputs": [
        {
          "internalType": "uint256",
          "name": "",
          "type": "uint256"
        }
      ],
      "stateMutability": "view",
      "type": "function",
      "constant": true
    },
    {
      "inputs": [],
      "name": "whitelistMint",
      "outputs": [],
      "stateMutability": "payable",
      "type": "function",
      "payable": true
    },
    {
      "inputs": [],
      "name": "publicMint",
      "outputs": [],
      "stateMutability": "payable",
      "type": "function",
      "payable": true
    },
    {
      "inputs": [
        {
          "internalType": "address[]",
          "name": "_addresses",
          "type": "address[]"
        },
        {
          "internalType": "uint8",
          "name": "_x",
          "type": "uint8"
        }
      ],
      "name": "sharkDrop",
      "outputs": [],
      "stateMutability": "nonpayable",
      "type": "function"
    },
    {
      "inputs": [],
      "name": "switchToPublic",
      "outputs": [],
      "stateMutability": "nonpayable",
      "type": "function"
    },
    {
      "inputs": [],
      "name": "withdraw",
      "outputs": [],
      "stateMutability": "nonpayable",
      "type": "function"
    },
    {
      "inputs": [],
      "name": "totalSupply",
      "outputs": [
        {
          "internalType": "uint256",
          "name": "",
          "type": "uint256"
        }
      ],
      "stateMutability": "view",
      "type": "function",
      "constant": true
    },
    {
      "inputs": [
        {
          "internalType": "bytes32",
          "name": "_x",
          "type": "bytes32"
        }
      ],
      "name": "updateRoot",
      "outputs": [],
      "stateMutability": "nonpayable",
      "type": "function"
    },
    {
      "inputs": [
        {
          "internalType": "uint256",
          "name": "tokenId",
          "type": "uint256"
        }
      ],
      "name": "tokenURI",
      "outputs": [
        {
          "internalType": "string",
          "name": "",
          "type": "string"
        }
      ],
      "stateMutability": "view",
      "type": "function",
      "constant": true
    },
    {
      "inputs": [
        {
          "internalType": "string",
          "name": "_uri",
          "type": "string"
        }
      ],
      "name": "setBaseUri",
      "outputs": [],
      "stateMutability": "nonpayable",
      "type": "function"
    }
  ],
  "bytecode": "0x608060405260078054600160a060020a031990811673e40c8dea5edab02c3b778605cf7b9dd1301062d017909155600880548216737f4ea72afccba8401424a65dfc9db4d3701be53617905560098054821673f21df340812629d44264474d478be0215ea60eb6179055600a80549091167316232b3986724053193173305c63c66a8657664a17905566470de4df820000600b55666a94d74f430000600c55600d805461ffff19166108ae179055348015620000ba57600080fd5b506040518060400160405280600981526020017f5a4950536861726b7300000000000000000000000000000000000000000000008152506040518060400160405280600481526020017f5a495053000000000000000000000000000000000000000000000000000000008152508160009081620001389190620004fa565b506001620001478282620004fa565b5050506200017662000167620001f5640100000000026401000000009004565b640100000000620001f9810204565b60005b60328160ff1610620001ee576200019f6010640100000000620016ba6200024b82021704565b600a54620001d990600160a060020a0316620001ca6010640100000000620016c36200025482021704565b64010000000062000258810204565b80620001e581620005fc565b91505062000179565b506200063a565b3390565b60068054600160a060020a03838116600160a060020a0319831681179093556040519116919082907f8be0079c531659141344cd1fd0a4f28419497f9722a3daafe3b4186f6b6457e090600090a35050565b80546001019055565b5490565b600160a060020a038216620002ce576040517f08c379a000000000000000000000000000000000000000000000000000000000815260206004820181905260248201527f4552433732313a206d696e7420746f20746865207a65726f206164647265737360448201526064015b60405180910390fd5b620002e28164010000000062000402810204565b156200034b576040517f08c379a000000000000000000000000000000000000000000000000000000000815260206004820152601c60248201527f4552433732313a20746f6b656e20616c7265616479206d696e746564000000006044820152606401620002c5565b62000362600083836401000000006200041f810204565b600160a060020a03821660009081526003602052604081208054600192906200038d9084906200061e565b90915550506000818152600260205260408082208054600160a060020a031916600160a060020a03861690811790915590518392907fddf252ad1be2c89b69c2b068fc378daa952ba7f163c4a11628f55a4df523b3ef908290a4620003fe600083836401000000006200041f810204565b5050565b600090815260026020526040902054600160a060020a0316151590565b505050565b7f4e487b7100000000000000000000000000000000000000000000000000000000600052604160045260246000fd5b6002810460018216806200046857607f821691505b602082108103620004a2577f4e487b7100000000000000000000000000000000000000000000000000000000600052602260045260246000fd5b50919050565b601f8211156200041f576000818152602081206020601f86010481016020861015620004d15750805b6020601f860104820191505b81811015620004f257828155600101620004dd565b505050505050565b815167ffffffffffffffff81111562000517576200051762000424565b6200052f8162000528845462000453565b84620004a8565b602080601f8311600181146200056b57600084156200054e5750858301515b60028086026008870290910a6000190419821617865550620004f2565b600085815260208120601f198616915b828110156200059c578886015182559484019460019091019084016200057b565b5085821015620005bd57878501516008601f88160260020a60001904191681555b5050505050600202600101905550565b7f4e487b7100000000000000000000000000000000000000000000000000000000600052601160045260246000fd5b600060ff821660ff8103620006155762000615620005cd565b60010192915050565b80820180821115620006345762000634620005cd565b92915050565b612858806200064a6000396000f3fe6080604052600436106101ea576000357c010000000000000000000000000000000000000000000000000000000090048063804f43cd11610114578063c87b56dd116100b2578063eac989f811610081578063eac989f814610544578063ebf0c71714610559578063f2fde38b1461056f578063fc1a1c361461058f57600080fd5b8063c87b56dd1461048d578063d5abeb01146104ad578063e985e9c5146104db578063e9d2e74c1461052457600080fd5b806395d89b41116100ee57806395d89b4114610418578063a0bcfc7f1461042d578063a22cb4651461044d578063b88d4fde1461046d57600080fd5b8063804f43cd146103dd5780638da5cb5b146103e55780638fd0aeb21461040357600080fd5b806326092b831161018c5780636352211e1161015b5780636352211e146103725780636817c76c1461039257806370a08231146103a8578063715018a6146103c857600080fd5b806326092b831461030357806333bc1c5c1461030b5780633ccfd60b1461033d57806342842e0e1461035257600080fd5b8063095ea7b3116101c8578063095ea7b31461027e57806318160ddd146102a057806321ff9970146102c357806323b872dd146102e357600080fd5b806301ffc9a7146101ef57806306fdde0314610224578063081812fc14610246575b600080fd5b3480156101fb57600080fd5b5061020f61020a3660046120cf565b6105a5565b60405190151581526020015b60405180910390f35b34801561023057600080fd5b5061023961068a565b60405161021b919061213c565b34801561025257600080fd5b5061026661026136600461214f565b61071c565b604051600160a060020a03909116815260200161021b565b34801561028a57600080fd5b5061029e610299366004612184565b6107cf565b005b3480156102ac57600080fd5b506102b561092e565b60405190815260200161021b565b3480156102cf57600080fd5b5061029e6102de36600461214f565b61093e565b3480156102ef57600080fd5b5061029e6102fe3660046121ae565b6109a5565b61029e610a34565b34801561031757600080fd5b50600a5461020f9074010000000000000000000000000000000000000000900460ff1681565b34801561034957600080fd5b5061029e610c65565b34801561035e57600080fd5b5061029e61036d3660046121ae565b610de9565b34801561037e57600080fd5b5061026661038d36600461214f565b610e04565b34801561039e57600080fd5b506102b5600c5481565b3480156103b457600080fd5b506102b56103c33660046121ea565b610e97565b3480156103d457600080fd5b5061029e610f39565b61029e610fa7565b3480156103f157600080fd5b50600654600160a060020a0316610266565b34801561040f57600080fd5b5061029e611204565b34801561042457600080fd5b506102396112b3565b34801561043957600080fd5b5061029e6104483660046122aa565b6112c2565b34801561045957600080fd5b5061029e6104683660046122f3565b611334565b34801561047957600080fd5b5061029e61048836600461232f565b61133f565b34801561049957600080fd5b506102396104a836600461214f565b6113d5565b3480156104b957600080fd5b50600d546104c89061ffff1681565b60405161ffff909116815260200161021b565b3480156104e757600080fd5b5061020f6104f63660046123ab565b600160a060020a03918216600090815260056020908152604080832093909416825291909152205460ff1690565b34801561053057600080fd5b5061029e61053f3660046123de565b611409565b34801561055057600080fd5b5061023961153a565b34801561056557600080fd5b506102b5600f5481565b34801561057b57600080fd5b5061029e61058a3660046121ea565b6115c8565b34801561059b57600080fd5b506102b5600b5481565b60007fffffffff0000000000000000000000000000000000000000000000000000000082167f80ac58cd00000000000000000000000000000000000000000000000000000000148061063857507fffffffff0000000000000000000000000000000000000000000000000000000082167f5b5e139f00000000000000000000000000000000000000000000000000000000145b8061068457507f01ffc9a7000000000000000000000000000000000000000000000000000000007fffffffff000000000000000000000000000000000000000000000000000000008316145b92915050565b60606000805461069990612469565b80601f01602080910402602001604051908101604052809291908181526020018280546106c590612469565b80156107125780601f106106e757610100808354040283529160200191610712565b820191906000526020600020905b8154815290600101906020018083116106f557829003601f168201915b5050505050905090565b600081815260026020526040812054600160a060020a03166107b357604051600080516020612803833981519152815260206004820152602c60248201527f4552433732313a20617070726f76656420717565727920666f72206e6f6e657860448201527f697374656e7420746f6b656e000000000000000000000000000000000000000060648201526084015b60405180910390fd5b50600090815260046020526040902054600160a060020a031690565b60006107da82610e04565b905080600160a060020a031683600160a060020a03160361086b57604051600080516020612803833981519152815260206004820152602160248201527f4552433732313a20617070726f76616c20746f2063757272656e74206f776e6560448201527f720000000000000000000000000000000000000000000000000000000000000060648201526084016107aa565b33600160a060020a03821614806108a55750600160a060020a038116600090815260056020908152604080832033845290915290205460ff165b61091f57604051600080516020612803833981519152815260206004820152603860248201527f4552433732313a20617070726f76652063616c6c6572206973206e6f74206f7760448201527f6e6572206e6f7220617070726f76656420666f7220616c6c000000000000000060648201526084016107aa565b61092983836116c7565b505050565b600061093960105490565b905090565b600654600160a060020a031633146109a057604051600080516020612803833981519152815260206004820181905260248201527f4f776e61626c653a2063616c6c6572206973206e6f7420746865206f776e657260448201526064016107aa565b600f55565b6109af3382611742565b610a2957604051600080516020612803833981519152815260206004820152603160248201527f4552433732313a207472616e736665722063616c6c6572206973206e6f74206f60448201527f776e6572206e6f7220617070726f76656400000000000000000000000000000060648201526084016107aa565b610929838383611852565b600c54610a42903490611a3c565b15610a9757604051600080516020612803833981519152815260206004820181905260248201527f506c65617365206d696e74207468726f7567682074686520776562736974652e60448201526064016107aa565b6000345b600c548110610ac657600c54610ab2908290611a4f565b9050610abf826001611a5b565b9150610a9b565b33600090815260126020526040902054601490610ae39084611a5b565b1115610b5f57604051600080516020612803833981519152815260206004820152602e60248201527f4d6178206d696e74207065722077616c6c65742069732032302e20547279206160448201527f6e6f746865722077616c6c65742e00000000000000000000000000000000000060648201526084016107aa565b600d5461ffff16610b7983610b7360105490565b90611a5b565b1115610bf557604051600080516020612803833981519152815260206004820152602d60248201527f43757272656e74204d696e74204c696d697420526561636865642e205472792060448201527f6d696e74696e67206c6573732e0000000000000000000000000000000000000060648201526084016107aa565b60005b828160ff161015610c3557610c11601080546001019055565b610c2333610c1e60105490565b611a67565b80610c2d816124eb565b915050610bf8565b5033600090815260126020526040902054610c5190839061250a565b336000908152601260205260409020555050565b600654600160a060020a03163314610cc757604051600080516020612803833981519152815260206004820181905260248201527f4f776e61626c653a2063616c6c6572206973206e6f7420746865206f776e657260448201526064016107aa565b30316000610cd6826064611bc6565b600a8054919250600160a060020a03909116906108fc90610cf8908490611bd2565b6040518115909202916000818181858888f19350505050158015610d20573d6000803e3d6000fd5b50600754600160a060020a03166108fc610d3b836004611bd2565b6040518115909202916000818181858888f19350505050158015610d63573d6000803e3d6000fd5b50600954600160a060020a03166108fc610d7e83600b611bd2565b6040518115909202916000818181858888f19350505050158015610da6573d6000803e3d6000fd5b50600854600160a060020a03166108fc610dc183604b611bd2565b6040518115909202916000818181858888f19350505050158015610929573d6000803e3d6000fd5b6109298383836040518060200160405280600081525061133f565b600081815260026020526040812054600160a060020a03168061068457604051600080516020612803833981519152815260206004820152602960248201527f4552433732313a206f776e657220717565727920666f72206e6f6e657869737460448201527f656e7420746f6b656e000000000000000000000000000000000000000000000060648201526084016107aa565b6000600160a060020a038216610f1d57604051600080516020612803833981519152815260206004820152602a60248201527f4552433732313a2062616c616e636520717565727920666f7220746865207a6560448201527f726f20616464726573730000000000000000000000000000000000000000000060648201526084016107aa565b50600160a060020a031660009081526003602052604090205490565b600654600160a060020a03163314610f9b57604051600080516020612803833981519152815260206004820181905260248201527f4f776e61626c653a2063616c6c6572206973206e6f7420746865206f776e657260448201526064016107aa565b610fa56000611bde565b565b3360009081526011602052604090205460ff161515600103610fc857600080fd5b600c54610fd6903490611a3c565b1561102b57604051600080516020612803833981519152815260206004820181905260248201527f506c65617365206d696e74207468726f7567682074686520776562736974652e60448201526064016107aa565b6000345b600b54811061105a57600b54611046908290611a4f565b9050611053826001611a5b565b915061102f565b336000908152601260205260409020546014906110779084611a5b565b11156110f357604051600080516020612803833981519152815260206004820152602e60248201527f4d6178206d696e74207065722077616c6c65742069732032302e20547279206160448201527f6e6f746865722077616c6c65742e00000000000000000000000000000000000060648201526084016107aa565b600d5461ffff1661110783610b7360105490565b111561118357604051600080516020612803833981519152815260206004820152602d60248201527f43757272656e74204d696e74204c696d697420526561636865642e205472792060448201527f6d696e74696e67206c6573732e0000000000000000000000000000000000000060648201526084016107aa565b60005b828160ff1610156111be5761119f601080546001019055565b6111ac33610c1e60105490565b806111b6816124eb565b915050611186565b50336000908152601260205260409020546111da90839061250a565b336000908152601260209081526040808320939093556011905220805460ff191660011790555050565b600654600160a060020a0316331461126657604051600080516020612803833981519152815260206004820181905260248201527f4f776e61626c653a2063616c6c6572206973206e6f7420746865206f776e657260448201526064016107aa565b600a80547fffffffffffffffffffffff00ffffffffffffffffffffffffffffffffffffffff8116740100000000000000000000000000000000000000009182900460ff1615909102179055565b60606001805461069990612469565b600654600160a060020a0316331461132457604051600080516020612803833981519152815260206004820181905260248201527f4f776e61626c653a2063616c6c6572206973206e6f7420746865206f776e657260448201526064016107aa565b600e611330828261256b565b5050565b611330338383611c3d565b6113493383611742565b6113c357604051600080516020612803833981519152815260206004820152603160248201527f4552433732313a207472616e736665722063616c6c6572206973206e6f74206f60448201527f776e6572206e6f7220617070726f76656400000000000000000000000000000060648201526084016107aa565b6113cf84848484611d13565b50505050565b6060600e6113e283611da4565b6040516020016113f3929190612631565b6040516020818303038152906040529050919050565b600654600160a060020a0316331461146b57604051600080516020612803833981519152815260206004820181905260248201527f4f776e61626c653a2063616c6c6572206973206e6f7420746865206f776e657260448201526064016107aa565b60005b828110156113cf5760005b8260ff1681101561152757611492601080546001019055565b6114c48585848181106114a7576114a76126e0565b90506020020160208101906114bc91906121ea565b601054611a67565b6115146001601260008888878181106114df576114df6126e0565b90506020020160208101906114f491906121ea565b600160a060020a0316815260208101919091526040016000205490611a5b565b508061151f8161270f565b915050611479565b50806115328161270f565b91505061146e565b600e805461154790612469565b80601f016020809104026020016040519081016040528092919081815260200182805461157390612469565b80156115c05780601f10611595576101008083540402835291602001916115c0565b820191906000526020600020905b8154815290600101906020018083116115a357829003601f168201915b505050505081565b600654600160a060020a0316331461162a57604051600080516020612803833981519152815260206004820181905260248201527f4f776e61626c653a2063616c6c6572206973206e6f7420746865206f776e657260448201526064016107aa565b600160a060020a0381166116ae57604051600080516020612803833981519152815260206004820152602660248201527f4f776e61626c653a206e6577206f776e657220697320746865207a65726f206160448201527f646472657373000000000000000000000000000000000000000000000000000060648201526084016107aa565b6116b781611bde565b50565b80546001019055565b5490565b6000818152600460205260409020805473ffffffffffffffffffffffffffffffffffffffff1916600160a060020a038416908117909155819061170982610e04565b600160a060020a03167f8c5be1e5ebec7d5bd14f71427d1e84f3dd0314c0f7b2291e5b200ac8c7c3b92560405160405180910390a45050565b600081815260026020526040812054600160a060020a03166117d457604051600080516020612803833981519152815260206004820152602c60248201527f4552433732313a206f70657261746f7220717565727920666f72206e6f6e657860448201527f697374656e7420746f6b656e000000000000000000000000000000000000000060648201526084016107aa565b60006117df83610e04565b905080600160a060020a031684600160a060020a031614806118265750600160a060020a0380821660009081526005602090815260408083209388168352929052205460ff165b8061184a575083600160a060020a031661183f8461071c565b600160a060020a0316145b949350505050565b82600160a060020a031661186582610e04565b600160a060020a0316146118e957604051600080516020612803833981519152815260206004820152602560248201527f4552433732313a207472616e736665722066726f6d20696e636f72726563742060448201527f6f776e657200000000000000000000000000000000000000000000000000000060648201526084016107aa565b600160a060020a03821661196c576040516000805160206128038339815191528152602060048201526024808201527f4552433732313a207472616e7366657220746f20746865207a65726f2061646460448201527f726573730000000000000000000000000000000000000000000000000000000060648201526084016107aa565b6119776000826116c7565b600160a060020a03831660009081526003602052604081208054600192906119a0908490612728565b9091555050600160a060020a03821660009081526003602052604081208054600192906119ce90849061250a565b9091555050600081815260026020526040808220805473ffffffffffffffffffffffffffffffffffffffff1916600160a060020a0386811691821790925591518493918716917fddf252ad1be2c89b69c2b068fc378daa952ba7f163c4a11628f55a4df523b3ef91a4505050565b6000611a48828461276a565b9392505050565b6000611a488284612728565b6000611a48828461250a565b600160a060020a038216611ac557604051600080516020612803833981519152815260206004820181905260248201527f4552433732313a206d696e7420746f20746865207a65726f206164647265737360448201526064016107aa565b600081815260026020526040902054600160a060020a031615611b3257604051600080516020612803833981519152815260206004820152601c60248201527f4552433732313a20746f6b656e20616c7265616479206d696e7465640000000060448201526064016107aa565b600160a060020a0382166000908152600360205260408120805460019290611b5b90849061250a565b9091555050600081815260026020526040808220805473ffffffffffffffffffffffffffffffffffffffff1916600160a060020a03861690811790915590518392907fddf252ad1be2c89b69c2b068fc378daa952ba7f163c4a11628f55a4df523b3ef908290a45050565b6000611a48828461277e565b6000611a488284612792565b60068054600160a060020a0383811673ffffffffffffffffffffffffffffffffffffffff19831681179093556040519116919082907f8be0079c531659141344cd1fd0a4f28419497f9722a3daafe3b4186f6b6457e090600090a35050565b81600160a060020a031683600160a060020a031603611ca657604051600080516020612803833981519152815260206004820152601960248201527f4552433732313a20617070726f766520746f2063616c6c65720000000000000060448201526064016107aa565b600160a060020a03838116600081815260056020908152604080832094871680845294825291829020805460ff191686151590811790915591519182527f17307eab39ab6107e8899845ad3d59bd9653f200f220920489ca2b5937696c31910160405180910390a3505050565b611d1e848484611852565b611d2a84848484611ef8565b6113cf57604051600080516020612803833981519152815260206004820152603260248201527f4552433732313a207472616e7366657220746f206e6f6e20455243373231526560448201527f63656976657220696d706c656d656e746572000000000000000000000000000060648201526084016107aa565b606081600003611de757505060408051808201909152600181527f3000000000000000000000000000000000000000000000000000000000000000602082015290565b8160005b8115611e115780611dfb8161270f565b9150611e0a9050600a8361277e565b9150611deb565b60008167ffffffffffffffff811115611e2c57611e2c612205565b6040519080825280601f01601f191660200182016040528015611e56576020820181803683370190505b5090505b841561184a57611e6b600183612728565b9150611e78600a8661276a565b611e8390603061250a565b7f010000000000000000000000000000000000000000000000000000000000000002818381518110611eb757611eb76126e0565b60200101907effffffffffffffffffffffffffffffffffffffffffffffffffffffffffffff1916908160001a905350611ef1600a8661277e565b9450611e5a565b6000600160a060020a0384163b15612096576040517f150b7a02000000000000000000000000000000000000000000000000000000008152600160a060020a0385169063150b7a0290611f559033908990889088906004016127a9565b6020604051808303816000875af1925050508015611f90575060408051601f3d908101601f19168201909252611f8d918101906127e5565b60015b61204b573d808015611fbe576040519150601f19603f3d011682016040523d82523d6000602084013e611fc3565b606091505b50805160000361204357604051600080516020612803833981519152815260206004820152603260248201527f4552433732313a207472616e7366657220746f206e6f6e20455243373231526560448201527f63656976657220696d706c656d656e746572000000000000000000000000000060648201526084016107aa565b805181602001fd5b7fffffffff00000000000000000000000000000000000000000000000000000000167f150b7a020000000000000000000000000000000000000000000000000000000014905061184a565b506001949350505050565b7fffffffff00000000000000000000000000000000000000000000000000000000811681146116b757600080fd5b6000602082840312156120e157600080fd5b8135611a48816120a1565b60005b838110156121075781810151838201526020016120ef565b50506000910152565b600081518084526121288160208601602086016120ec565b601f01601f19169290920160200192915050565b602081526000611a486020830184612110565b60006020828403121561216157600080fd5b5035919050565b8035600160a060020a038116811461217f57600080fd5b919050565b6000806040838503121561219757600080fd5b6121a083612168565b946020939093013593505050565b6000806000606084860312156121c357600080fd5b6121cc84612168565b92506121da60208501612168565b9150604084013590509250925092565b6000602082840312156121fc57600080fd5b611a4882612168565b7f4e487b7100000000000000000000000000000000000000000000000000000000600052604160045260246000fd5b600067ffffffffffffffff8084111561224f5761224f612205565b604051601f8501601f19908116603f0116810190828211818310171561227757612277612205565b8160405280935085815286868601111561229057600080fd5b858560208301376000602087830101525050509392505050565b6000602082840312156122bc57600080fd5b813567ffffffffffffffff8111156122d357600080fd5b8201601f810184136122e457600080fd5b61184a84823560208401612234565b6000806040838503121561230657600080fd5b61230f83612168565b91506020830135801515811461232457600080fd5b809150509250929050565b6000806000806080858703121561234557600080fd5b61234e85612168565b935061235c60208601612168565b925060408501359150606085013567ffffffffffffffff81111561237f57600080fd5b8501601f8101871361239057600080fd5b61239f87823560208401612234565b91505092959194509250565b600080604083850312156123be57600080fd5b6123c783612168565b91506123d560208401612168565b90509250929050565b6000806000604084860312156123f357600080fd5b833567ffffffffffffffff8082111561240b57600080fd5b818601915086601f83011261241f57600080fd5b81358181111561242e57600080fd5b876020808302850101111561244257600080fd5b6020928301955093505084013560ff8116811461245e57600080fd5b809150509250925092565b60028104600182168061247d57607f821691505b6020821081036124b6577f4e487b7100000000000000000000000000000000000000000000000000000000600052602260045260246000fd5b50919050565b7f4e487b7100000000000000000000000000000000000000000000000000000000600052601160045260246000fd5b600060ff821660ff8103612501576125016124bc565b60010192915050565b80820180821115610684576106846124bc565b601f821115610929576000818152602081206020601f860104810160208610156125445750805b6020601f860104820191505b8181101561256357828155600101612550565b505050505050565b815167ffffffffffffffff81111561258557612585612205565b612599816125938454612469565b8461251d565b602080601f8311600181146125d257600084156125b65750858301515b60028086026008870290910a6000190419821617865550612563565b600085815260208120601f198616915b82811015612601578886015182559484019460019091019084016125e2565b508582101561262157878501516008601f88160260020a60001904191681555b5050505050600202600101905550565b600080845461263f81612469565b60018281168015612657576001811461266c5761269b565b60ff198416875282151583028701945061269b565b8860005260208060002060005b858110156126925781548a820152908401908201612679565b50505082870194505b5050505083516126af8183602088016120ec565b7f2e6a736f6e0000000000000000000000000000000000000000000000000000009101908152600501949350505050565b7f4e487b7100000000000000000000000000000000000000000000000000000000600052603260045260246000fd5b600060018201612721576127216124bc565b5060010190565b81810381811115610684576106846124bc565b7f4e487b7100000000000000000000000000000000000000000000000000000000600052601260045260246000fd5b6000826127795761277961273b565b500690565b60008261278d5761278d61273b565b500490565b8082028115828204841417610684576106846124bc565b6000600160a060020a038087168352808616602084015250836040830152608060608301526127db6080830184612110565b9695505050505050565b6000602082840312156127f757600080fd5b8151611a48816120a156fe08c379a000000000000000000000000000000000000000000000000000000000a264697066735822122070aa185e451e8d4f1b6d69ab0fe0c113b3fd7d4d8e5276459c5b2de380d49e6d64736f6c63430008110033",
  "immutableReferences": {},
  "source": "// SPDX-License-Identifier: MIT\npragma solidity >=0.4.21 <9.0.0;\n\n// Relevant Libraries\nimport \"@openzeppelin/contracts/token/ERC721/ERC721.sol\";\nimport \"@openzeppelin/contracts/access/Ownable.sol\";\nimport \"@openzeppelin/contracts/utils/Counters.sol\";\nimport \"@openzeppelin/contracts/utils/math/SafeMath.sol\";\nimport \"@openzeppelin/contracts/utils/Strings.sol\";\n\ncontract ZIPSharks is ERC721, Ownable {\n    // Utils Used\n    using Counters for Counters.Counter;\n    using SafeMath for uint256;\n    using Strings for uint256;\n\n    //Team\n    address payable kTuck = payable(0xe40c8deA5EdAB02C3B778605cf7b9dD1301062d0);\n    address payable samurai =\n        payable(0x7f4EA72AFcCBa8401424A65Dfc9DB4d3701Be536);\n    address payable mufasa =\n        payable(0xf21df340812629D44264474d478be0215Ea60eb6);\n    address payable community =\n        payable(0x16232b3986724053193173305c63c66A8657664A);\n\n    // Properties\n    bool public publicSale;\n    uint256 public whitelistPrice = 0.02 ether;\n    uint256 public mintPrice = 0.03 ether;\n    uint16 public maxSupply = 2222;\n    string public uri;\n    bytes32 public root;\n\n    Counters.Counter private _tokenIdTracker;\n\n    // Mappings\n    mapping(address => bool) whitelistClaimed;\n    mapping(address => uint256) sharksMinted;\n\n    constructor() ERC721(\"ZIPSharks\", \"ZIPS\") {\n        for (uint8 counter = 0; counter >= 50; counter++) {\n            _tokenIdTracker.increment();\n            _mint(community, _tokenIdTracker.current());\n        }\n    }\n\n    // Modifiers\n    modifier whitelistConfig() {\n        require(whitelistClaimed[msg.sender] != true);\n        _;\n    }\n\n    function whitelistMint() public payable whitelistConfig {\n        require(\n            msg.value.mod(mintPrice) == 0,\n            \"Please mint through the website.\"\n        );\n\n        uint256 _amount = 0;\n        uint256 _balance = msg.value;\n\n        // Uses the balance sent to generate set number of NFTs\n        while (_balance >= whitelistPrice) {\n            _balance = _balance.sub(whitelistPrice);\n            _amount = _amount.add(1);\n        }\n\n        // Limits the number minted per wallet\n        require(\n            sharksMinted[msg.sender].add(_amount) <= 20,\n            \"Max mint per wallet is 20. Try another wallet.\"\n        );\n\n        // Limits the TokenID to MaxSupply\n        require(\n            (_tokenIdTracker.current().add(_amount)) <= maxSupply,\n            \"Current Mint Limit Reached. Try minting less.\"\n        );\n\n        // Runs a for loop to continue minting for the set amount asked.\n        for (uint8 counter = 0; counter < _amount; counter++) {\n            // 1.Mints the NFT to the current tokenID\n            // 2. Maps the current tokenChoice to the current URI\n            // 3. Adds one to tokenIDtracker\n            _tokenIdTracker.increment();\n            super._mint(msg.sender, _tokenIdTracker.current());\n        }\n\n        // WhitelistClaim and MintNumber Recorded\n        sharksMinted[msg.sender] = sharksMinted[msg.sender] + _amount;\n        whitelistClaimed[msg.sender] = true;\n    }\n\n    function publicMint() public payable {\n        require(\n            msg.value.mod(mintPrice) == 0,\n            \"Please mint through the website.\"\n        );\n\n        uint256 _amount = 0;\n        uint256 _balance = msg.value;\n\n        // Uses the balance sent to generate set number of NFTs\n        while (_balance >= mintPrice) {\n            _balance = _balance.sub(mintPrice);\n            _amount = _amount.add(1);\n        }\n\n        // Limits the number minted per wallet\n        require(\n            sharksMinted[msg.sender].add(_amount) <= 20,\n            \"Max mint per wallet is 20. Try another wallet.\"\n        );\n\n        // Limits the TokenID\n        require(\n            (_tokenIdTracker.current().add(_amount)) <= maxSupply,\n            \"Current Mint Limit Reached. Try minting less.\"\n        );\n\n        // Runs a for loop to continue minting for the set amount asked.\n        for (uint8 counter = 0; counter < _amount; counter++) {\n            // 1.Mints the NFT to the current tokenID\n            // 2. Maps the current tokenChoice to the current URI\n            // 3. Adds one to tokenIDtracker\n            _tokenIdTracker.increment();\n            super._mint(msg.sender, _tokenIdTracker.current());\n        }\n\n        sharksMinted[msg.sender] = sharksMinted[msg.sender] + _amount;\n    }\n\n    // ADMIN Methods\n\n    // SharkDrop Method\n    function sharkDrop(address[] calldata _addresses, uint8 _x)\n        public\n        onlyOwner\n    {\n        for (uint256 counter = 0; counter < _addresses.length; counter++) {\n            // Mints x amount per wallet inputed\n            for (uint256 n = 0; n < _x; n++) {\n                _tokenIdTracker.increment();\n                _mint(_addresses[counter], _tokenIdTracker.current());\n                sharksMinted[_addresses[counter]].add(1);\n            }\n        }\n    }\n\n    // Switches sale to public\n    function switchToPublic() public onlyOwner {\n        bool current = publicSale;\n        publicSale = !current;\n    }\n\n    //Withdraw Method\n\n    function withdraw() public onlyOwner {\n        uint256 _balance = address(this).balance;\n        uint256 _balanceDiv = _balance.div(100);\n        community.transfer(_balanceDiv.mul(10));\n        kTuck.transfer(_balanceDiv.mul(4));\n        mufasa.transfer(_balanceDiv.mul(11));\n        samurai.transfer(_balanceDiv.mul(75));\n    }\n\n    // TotalSupply Method\n    function totalSupply() public view returns (uint256) {\n        return _tokenIdTracker.current();\n    }\n\n    // Update Merkle Root\n    function updateRoot(bytes32 _x) public onlyOwner {\n        root = _x;\n    }\n\n    // URI methods\n\n    function tokenURI(uint256 tokenId)\n        public\n        view\n        virtual\n        override\n        returns (string memory)\n    {\n        return\n            string(abi.encodePacked(uri, Strings.toString(tokenId), \".json\"));\n    }\n\n    function setBaseUri(string memory _uri) public onlyOwner {\n        uri = _uri;\n    }\n\n    // OVERRIDE BaseURI Methods\n    function _baseURI() internal view virtual override returns (string memory) {\n        return uri;\n    }\n}\n",
  "sourcePath": "/Users/mustafaboorenie/zipsNFT/zipSharks/contracts/ZIPSharks.sol",
  "compiler": {
    "name": "solc",
    "version": "0.8.17+commit.8df45f5f.Emscripten.clang"
  },
  "schemaVersion": "3.4.3",
  "updatedAt": "2022-10-03T13:15:27.814Z",
  "networkType": "ethereum",
  "devdoc": {
    "kind": "dev",
    "methods": {
      "approve(address,uint256)": {
        "details": "See {IERC721-approve}."
      },
      "balanceOf(address)": {
        "details": "See {IERC721-balanceOf}."
      },
      "getApproved(uint256)": {
        "details": "See {IERC721-getApproved}."
      },
      "isApprovedForAll(address,address)": {
        "details": "See {IERC721-isApprovedForAll}."
      },
      "name()": {
        "details": "See {IERC721Metadata-name}."
      },
      "owner()": {
        "details": "Returns the address of the current owner."
      },
      "ownerOf(uint256)": {
        "details": "See {IERC721-ownerOf}."
      },
      "renounceOwnership()": {
        "details": "Leaves the contract without owner. It will not be possible to call `onlyOwner` functions anymore. Can only be called by the current owner. NOTE: Renouncing ownership will leave the contract without an owner, thereby removing any functionality that is only available to the owner."
      },
      "safeTransferFrom(address,address,uint256)": {
        "details": "See {IERC721-safeTransferFrom}."
      },
      "safeTransferFrom(address,address,uint256,bytes)": {
        "details": "See {IERC721-safeTransferFrom}."
      },
      "setApprovalForAll(address,bool)": {
        "details": "See {IERC721-setApprovalForAll}."
      },
      "supportsInterface(bytes4)": {
        "details": "See {IERC165-supportsInterface}."
      },
      "symbol()": {
        "details": "See {IERC721Metadata-symbol}."
      },
      "tokenURI(uint256)": {
        "details": "See {IERC721Metadata-tokenURI}."
      },
      "transferFrom(address,address,uint256)": {
        "details": "See {IERC721-transferFrom}."
      },
      "transferOwnership(address)": {
        "details": "Transfers ownership of the contract to a new account (`newOwner`). Can only be called by the current owner."
      }
    },
    "version": 1
  },
  "userdoc": {
    "kind": "user",
    "methods": {},
    "version": 1
  }
}