{
  "contractName": "ZIPSharks",
  "abi": [
    {
      "inputs": [],
      "stateMutability": "nonpayable",
      "type": "constructor"
    },
    {
      "anonymous": false,
      "inputs": [
        {
          "indexed": true,
          "internalType": "address",
          "name": "owner",
          "type": "address"
        },
        {
          "indexed": true,
          "internalType": "address",
          "name": "approved",
          "type": "address"
        },
        {
          "indexed": true,
          "internalType": "uint256",
          "name": "tokenId",
          "type": "uint256"
        }
      ],
      "name": "Approval",
      "type": "event"
    },
    {
      "anonymous": false,
      "inputs": [
        {
          "indexed": true,
          "internalType": "address",
          "name": "owner",
          "type": "address"
        },
        {
          "indexed": true,
          "internalType": "address",
          "name": "operator",
          "type": "address"
        },
        {
          "indexed": false,
          "internalType": "bool",
          "name": "approved",
          "type": "bool"
        }
      ],
      "name": "ApprovalForAll",
      "type": "event"
    },
    {
      "anonymous": false,
      "inputs": [
        {
          "indexed": true,
          "internalType": "address",
          "name": "previousOwner",
          "type": "address"
        },
        {
          "indexed": true,
          "internalType": "address",
          "name": "newOwner",
          "type": "address"
        }
      ],
      "name": "OwnershipTransferred",
      "type": "event"
    },
    {
      "anonymous": false,
      "inputs": [
        {
          "indexed": true,
          "internalType": "address",
          "name": "from",
          "type": "address"
        },
        {
          "indexed": true,
          "internalType": "address",
          "name": "to",
          "type": "address"
        },
        {
          "indexed": true,
          "internalType": "uint256",
          "name": "tokenId",
          "type": "uint256"
        }
      ],
      "name": "Transfer",
      "type": "event"
    },
    {
      "inputs": [
        {
          "internalType": "address",
          "name": "to",
          "type": "address"
        },
        {
          "internalType": "uint256",
          "name": "tokenId",
          "type": "uint256"
        }
      ],
      "name": "approve",
      "outputs": [],
      "stateMutability": "nonpayable",
      "type": "function"
    },
    {
      "inputs": [
        {
          "internalType": "address",
          "name": "owner",
          "type": "address"
        }
      ],
      "name": "balanceOf",
      "outputs": [
        {
          "internalType": "uint256",
          "name": "",
          "type": "uint256"
        }
      ],
      "stateMutability": "view",
      "type": "function",
      "constant": true
    },
    {
      "inputs": [
        {
          "internalType": "uint256",
          "name": "tokenId",
          "type": "uint256"
        }
      ],
      "name": "getApproved",
      "outputs": [
        {
          "internalType": "address",
          "name": "",
          "type": "address"
        }
      ],
      "stateMutability": "view",
      "type": "function",
      "constant": true
    },
    {
      "inputs": [
        {
          "internalType": "address",
          "name": "owner",
          "type": "address"
        },
        {
          "internalType": "address",
          "name": "operator",
          "type": "address"
        }
      ],
      "name": "isApprovedForAll",
      "outputs": [
        {
          "internalType": "bool",
          "name": "",
          "type": "bool"
        }
      ],
      "stateMutability": "view",
      "type": "function",
      "constant": true
    },
    {
      "inputs": [],
      "name": "maxSupply",
      "outputs": [
        {
          "internalType": "uint16",
          "name": "",
          "type": "uint16"
        }
      ],
      "stateMutability": "view",
      "type": "function",
      "constant": true
    },
    {
      "inputs": [],
      "name": "mintPrice",
      "outputs": [
        {
          "internalType": "uint256",
          "name": "",
          "type": "uint256"
        }
      ],
      "stateMutability": "view",
      "type": "function",
      "constant": true
    },
    {
      "inputs": [],
      "name": "name",
      "outputs": [
        {
          "internalType": "string",
          "name": "",
          "type": "string"
        }
      ],
      "stateMutability": "view",
      "type": "function",
      "constant": true
    },
    {
      "inputs": [],
      "name": "owner",
      "outputs": [
        {
          "internalType": "address",
          "name": "",
          "type": "address"
        }
      ],
      "stateMutability": "view",
      "type": "function",
      "constant": true
    },
    {
      "inputs": [
        {
          "internalType": "uint256",
          "name": "tokenId",
          "type": "uint256"
        }
      ],
      "name": "ownerOf",
      "outputs": [
        {
          "internalType": "address",
          "name": "",
          "type": "address"
        }
      ],
      "stateMutability": "view",
      "type": "function",
      "constant": true
    },
    {
      "inputs": [],
      "name": "publicSale",
      "outputs": [
        {
          "internalType": "bool",
          "name": "",
          "type": "bool"
        }
      ],
      "stateMutability": "view",
      "type": "function",
      "constant": true
    },
    {
      "inputs": [],
      "name": "renounceOwnership",
      "outputs": [],
      "stateMutability": "nonpayable",
      "type": "function"
    },
    {
      "inputs": [],
      "name": "root",
      "outputs": [
        {
          "internalType": "bytes32",
          "name": "",
          "type": "bytes32"
        }
      ],
      "stateMutability": "view",
      "type": "function",
      "constant": true
    },
    {
      "inputs": [
        {
          "internalType": "address",
          "name": "from",
          "type": "address"
        },
        {
          "internalType": "address",
          "name": "to",
          "type": "address"
        },
        {
          "internalType": "uint256",
          "name": "tokenId",
          "type": "uint256"
        }
      ],
      "name": "safeTransferFrom",
      "outputs": [],
      "stateMutability": "nonpayable",
      "type": "function"
    },
    {
      "inputs": [
        {
          "internalType": "address",
          "name": "from",
          "type": "address"
        },
        {
          "internalType": "address",
          "name": "to",
          "type": "address"
        },
        {
          "internalType": "uint256",
          "name": "tokenId",
          "type": "uint256"
        },
        {
          "internalType": "bytes",
          "name": "_data",
          "type": "bytes"
        }
      ],
      "name": "safeTransferFrom",
      "outputs": [],
      "stateMutability": "nonpayable",
      "type": "function"
    },
    {
      "inputs": [
        {
          "internalType": "address",
          "name": "operator",
          "type": "address"
        },
        {
          "internalType": "bool",
          "name": "approved",
          "type": "bool"
        }
      ],
      "name": "setApprovalForAll",
      "outputs": [],
      "stateMutability": "nonpayable",
      "type": "function"
    },
    {
      "inputs": [
        {
          "internalType": "bytes4",
          "name": "interfaceId",
          "type": "bytes4"
        }
      ],
      "name": "supportsInterface",
      "outputs": [
        {
          "internalType": "bool",
          "name": "",
          "type": "bool"
        }
      ],
      "stateMutability": "view",
      "type": "function",
      "constant": true
    },
    {
      "inputs": [],
      "name": "symbol",
      "outputs": [
        {
          "internalType": "string",
          "name": "",
          "type": "string"
        }
      ],
      "stateMutability": "view",
      "type": "function",
      "constant": true
    },
    {
      "inputs": [
        {
          "internalType": "address",
          "name": "from",
          "type": "address"
        },
        {
          "internalType": "address",
          "name": "to",
          "type": "address"
        },
        {
          "internalType": "uint256",
          "name": "tokenId",
          "type": "uint256"
        }
      ],
      "name": "transferFrom",
      "outputs": [],
      "stateMutability": "nonpayable",
      "type": "function"
    },
    {
      "inputs": [
        {
          "internalType": "address",
          "name": "newOwner",
          "type": "address"
        }
      ],
      "name": "transferOwnership",
      "outputs": [],
      "stateMutability": "nonpayable",
      "type": "function"
    },
    {
      "inputs": [],
      "name": "uri",
      "outputs": [
        {
          "internalType": "string",
          "name": "",
          "type": "string"
        }
      ],
      "stateMutability": "view",
      "type": "function",
      "constant": true
    },
    {
      "inputs": [],
      "name": "whitelistPrice",
      "outputs": [
        {
          "internalType": "uint256",
          "name": "",
          "type": "uint256"
        }
      ],
      "stateMutability": "view",
      "type": "function",
      "constant": true
    },
    {
      "inputs": [
        {
          "internalType": "bytes32[]",
          "name": "_proof",
          "type": "bytes32[]"
        }
      ],
      "name": "whitelistMint",
      "outputs": [],
      "stateMutability": "payable",
      "type": "function",
      "payable": true
    },
    {
      "inputs": [],
      "name": "publicMint",
      "outputs": [],
      "stateMutability": "payable",
      "type": "function",
      "payable": true
    },
    {
      "inputs": [
        {
          "internalType": "address[]",
          "name": "_addresses",
          "type": "address[]"
        },
        {
          "internalType": "uint8",
          "name": "_x",
          "type": "uint8"
        }
      ],
      "name": "sharkDrop",
      "outputs": [],
      "stateMutability": "nonpayable",
      "type": "function"
    },
    {
      "inputs": [],
      "name": "switchToPublic",
      "outputs": [],
      "stateMutability": "nonpayable",
      "type": "function"
    },
    {
      "inputs": [],
      "name": "withdraw",
      "outputs": [],
      "stateMutability": "nonpayable",
      "type": "function"
    },
    {
      "inputs": [],
      "name": "totalSupply",
      "outputs": [
        {
          "internalType": "uint256",
          "name": "",
          "type": "uint256"
        }
      ],
      "stateMutability": "view",
      "type": "function",
      "constant": true
    },
    {
      "inputs": [
        {
          "internalType": "bytes32",
          "name": "_x",
          "type": "bytes32"
        }
      ],
      "name": "updateRoot",
      "outputs": [],
      "stateMutability": "nonpayable",
      "type": "function"
    },
    {
      "inputs": [
        {
          "internalType": "uint256",
          "name": "tokenId",
          "type": "uint256"
        }
      ],
      "name": "tokenURI",
      "outputs": [
        {
          "internalType": "string",
          "name": "",
          "type": "string"
        }
      ],
      "stateMutability": "view",
      "type": "function",
      "constant": true
    },
    {
      "inputs": [
        {
          "internalType": "string",
          "name": "_uri",
          "type": "string"
        }
      ],
      "name": "setBaseUri",
      "outputs": [],
      "stateMutability": "nonpayable",
      "type": "function"
    }
  ],
  "bytecode": "0x608060405260078054600160a060020a031990811673e40c8dea5edab02c3b778605cf7b9dd1301062d017909155600880548216737f4ea72afccba8401424a65dfc9db4d3701be53617905560098054821673f21df340812629d44264474d478be0215ea60eb6179055600a80549091167316232b3986724053193173305c63c66a8657664a17905566470de4df820000600b55666a94d74f430000600c55600d805461ffff19166108ae179055348015620000ba57600080fd5b506040518060400160405280600981526020017f5a4950536861726b7300000000000000000000000000000000000000000000008152506040518060400160405280600481526020017f5a495053000000000000000000000000000000000000000000000000000000008152508160009081620001389190620002a9565b506001620001478282620002a9565b50505062000176620001676200017c640100000000026401000000009004565b64010000000062000180810204565b6200037c565b3390565b60068054600160a060020a03838116600160a060020a0319831681179093556040519116919082907f8be0079c531659141344cd1fd0a4f28419497f9722a3daafe3b4186f6b6457e090600090a35050565b7f4e487b7100000000000000000000000000000000000000000000000000000000600052604160045260246000fd5b6002810460018216806200021657607f821691505b60208210810362000250577f4e487b7100000000000000000000000000000000000000000000000000000000600052602260045260246000fd5b50919050565b601f821115620002a4576000818152602081206020601f860104810160208610156200027f5750805b6020601f860104820191505b81811015620002a0578281556001016200028b565b5050505b505050565b815167ffffffffffffffff811115620002c657620002c6620001d2565b620002de81620002d7845462000201565b8462000256565b602080601f8311600181146200031a5760008415620002fd5750858301515b60028086026008870290910a6000190419821617865550620002a0565b600085815260208120601f198616915b828110156200034b578886015182559484019460019091019084016200032a565b50858210156200036c57878501516008601f88160260020a60001904191681555b5050505050600202600101905550565b612a2d806200038c6000396000f3fe6080604052600436106101ea576000357c010000000000000000000000000000000000000000000000000000000090048063715018a611610114578063c87b56dd116100b2578063eac989f811610081578063eac989f81461054f578063ebf0c71714610564578063f2fde38b1461057a578063fc1a1c361461059a57600080fd5b8063c87b56dd14610498578063d5abeb01146104b8578063e985e9c5146104e6578063e9d2e74c1461052f57600080fd5b806395d89b41116100ee57806395d89b4114610423578063a0bcfc7f14610438578063a22cb46514610458578063b88d4fde1461047857600080fd5b8063715018a6146103db5780638da5cb5b146103f05780638fd0aeb21461040e57600080fd5b806326092b831161018c57806342842e0e1161015b57806342842e0e146103655780636352211e146103855780636817c76c146103a557806370a08231146103bb57600080fd5b806326092b831461030357806333bc1c5c1461030b578063372f657c1461033d5780633ccfd60b1461035057600080fd5b8063095ea7b3116101c8578063095ea7b31461027e57806318160ddd146102a057806321ff9970146102c357806323b872dd146102e357600080fd5b806301ffc9a7146101ef57806306fdde0314610224578063081812fc14610246575b600080fd5b3480156101fb57600080fd5b5061020f61020a366004612245565b6105b0565b60405190151581526020015b60405180910390f35b34801561023057600080fd5b50610239610695565b60405161021b91906122b2565b34801561025257600080fd5b506102666102613660046122c5565b610727565b604051600160a060020a03909116815260200161021b565b34801561028a57600080fd5b5061029e6102993660046122fa565b6107da565b005b3480156102ac57600080fd5b506102b5610939565b60405190815260200161021b565b3480156102cf57600080fd5b5061029e6102de3660046122c5565b610949565b3480156102ef57600080fd5b5061029e6102fe366004612324565b6109b0565b61029e610a3f565b34801561031757600080fd5b50600a5461020f9074010000000000000000000000000000000000000000900460ff1681565b61029e61034b3660046123ab565b610c70565b34801561035c57600080fd5b5061029e610fbb565b34801561037157600080fd5b5061029e610380366004612324565b61113f565b34801561039157600080fd5b506102666103a03660046122c5565b61115a565b3480156103b157600080fd5b506102b5600c5481565b3480156103c757600080fd5b506102b56103d63660046123ed565b6111ed565b3480156103e757600080fd5b5061029e61128f565b3480156103fc57600080fd5b50600654600160a060020a0316610266565b34801561041a57600080fd5b5061029e6112fd565b34801561042f57600080fd5b506102396113ac565b34801561044457600080fd5b5061029e6104533660046124ad565b6113bb565b34801561046457600080fd5b5061029e6104733660046124f6565b61142d565b34801561048457600080fd5b5061029e610493366004612532565b611438565b3480156104a457600080fd5b506102396104b33660046122c5565b6114ce565b3480156104c457600080fd5b50600d546104d39061ffff1681565b60405161ffff909116815260200161021b565b3480156104f257600080fd5b5061020f6105013660046125ae565b600160a060020a03918216600090815260056020908152604080832093909416825291909152205460ff1690565b34801561053b57600080fd5b5061029e61054a3660046125e1565b611502565b34801561055b57600080fd5b50610239611633565b34801561057057600080fd5b506102b5600f5481565b34801561058657600080fd5b5061029e6105953660046123ed565b6116c1565b3480156105a657600080fd5b506102b5600b5481565b60007fffffffff0000000000000000000000000000000000000000000000000000000082167f80ac58cd00000000000000000000000000000000000000000000000000000000148061064357507fffffffff0000000000000000000000000000000000000000000000000000000082167f5b5e139f00000000000000000000000000000000000000000000000000000000145b8061068f57507f01ffc9a7000000000000000000000000000000000000000000000000000000007fffffffff000000000000000000000000000000000000000000000000000000008316145b92915050565b6060600080546106a49061263e565b80601f01602080910402602001604051908101604052809291908181526020018280546106d09061263e565b801561071d5780601f106106f25761010080835404028352916020019161071d565b820191906000526020600020905b81548152906001019060200180831161070057829003601f168201915b5050505050905090565b600081815260026020526040812054600160a060020a03166107be576040516000805160206129d8833981519152815260206004820152602c60248201527f4552433732313a20617070726f76656420717565727920666f72206e6f6e657860448201527f697374656e7420746f6b656e000000000000000000000000000000000000000060648201526084015b60405180910390fd5b50600090815260046020526040902054600160a060020a031690565b60006107e58261115a565b905080600160a060020a031683600160a060020a031603610876576040516000805160206129d8833981519152815260206004820152602160248201527f4552433732313a20617070726f76616c20746f2063757272656e74206f776e6560448201527f720000000000000000000000000000000000000000000000000000000000000060648201526084016107b5565b33600160a060020a03821614806108b05750600160a060020a038116600090815260056020908152604080832033845290915290205460ff165b61092a576040516000805160206129d8833981519152815260206004820152603860248201527f4552433732313a20617070726f76652063616c6c6572206973206e6f74206f7760448201527f6e6572206e6f7220617070726f76656420666f7220616c6c000000000000000060648201526084016107b5565b61093483836117b3565b505050565b600061094460105490565b905090565b600654600160a060020a031633146109ab576040516000805160206129d8833981519152815260206004820181905260248201527f4f776e61626c653a2063616c6c6572206973206e6f7420746865206f776e657260448201526064016107b5565b600f55565b6109ba338261182e565b610a34576040516000805160206129d8833981519152815260206004820152603160248201527f4552433732313a207472616e736665722063616c6c6572206973206e6f74206f60448201527f776e6572206e6f7220617070726f76656400000000000000000000000000000060648201526084016107b5565b61093483838361193e565b600c54610a4d903490611b28565b15610aa2576040516000805160206129d8833981519152815260206004820181905260248201527f506c65617365206d696e74207468726f7567682074686520776562736974652e60448201526064016107b5565b6000345b600c548110610ad157600c54610abd908290611b3b565b9050610aca826001611b47565b9150610aa6565b33600090815260126020526040902054601490610aee9084611b47565b1115610b6a576040516000805160206129d8833981519152815260206004820152602e60248201527f4d6178206d696e74207065722077616c6c65742069732032302e20547279206160448201527f6e6f746865722077616c6c65742e00000000000000000000000000000000000060648201526084016107b5565b600d5461ffff16610b8483610b7e60105490565b90611b47565b1115610c00576040516000805160206129d8833981519152815260206004820152602d60248201527f43757272656e74204d696e74204c696d697420526561636865642e205472792060448201527f6d696e74696e67206c6573732e0000000000000000000000000000000000000060648201526084016107b5565b60005b828160ff161015610c4057610c1c601080546001019055565b610c2e33610c2960105490565b611b53565b80610c38816126c0565b915050610c03565b5033600090815260126020526040902054610c5c9083906126df565b336000908152601260205260409020555050565b3360009081526011602052604090205460ff161515600103610c9157600080fd5b600c54610c9f903490611b28565b15610cf4576040516000805160206129d8833981519152815260206004820181905260248201527f506c65617365206d696e74207468726f7567682074686520776562736974652e60448201526064016107b5565b610d6682828080602002602001604051908101604052809392919081815260200183836020028082843760009201919091525050600f546040516c0100000000000000000000000033026020820152909250603401905060405160208183030381529060405280519060200120611cb2565b610de0576040516000805160206129d8833981519152815260206004820152603d60248201527f546869732077616c6c6574206973206e6f7420726567697374657265642e205460448201527f727920616761696e207769746820616e6f746865722077616c6c65742e00000060648201526084016107b5565b6000345b600b548110610e0f57600b54610dfb908290611b3b565b9050610e08826001611b47565b9150610de4565b33600090815260126020526040902054601490610e2c9084611b47565b1115610ea8576040516000805160206129d8833981519152815260206004820152602e60248201527f4d6178206d696e74207065722077616c6c65742069732032302e20547279206160448201527f6e6f746865722077616c6c65742e00000000000000000000000000000000000060648201526084016107b5565b600d5461ffff16610ebc83610b7e60105490565b1115610f38576040516000805160206129d8833981519152815260206004820152602d60248201527f43757272656e74204d696e74204c696d697420526561636865642e205472792060448201527f6d696e74696e67206c6573732e0000000000000000000000000000000000000060648201526084016107b5565b60005b828160ff161015610f7357610f54601080546001019055565b610f6133610c2960105490565b80610f6b816126c0565b915050610f3b565b5033600090815260126020526040902054610f8f9083906126df565b336000908152601260209081526040808320939093556011905220805460ff1916600117905550505050565b600654600160a060020a0316331461101d576040516000805160206129d8833981519152815260206004820181905260248201527f4f776e61626c653a2063616c6c6572206973206e6f7420746865206f776e657260448201526064016107b5565b3031600061102c826064611cc8565b600a8054919250600160a060020a03909116906108fc9061104e908490611cd4565b6040518115909202916000818181858888f19350505050158015611076573d6000803e3d6000fd5b50600754600160a060020a03166108fc611091836004611cd4565b6040518115909202916000818181858888f193505050501580156110b9573d6000803e3d6000fd5b50600954600160a060020a03166108fc6110d483600b611cd4565b6040518115909202916000818181858888f193505050501580156110fc573d6000803e3d6000fd5b50600854600160a060020a03166108fc61111783604b611cd4565b6040518115909202916000818181858888f19350505050158015610934573d6000803e3d6000fd5b61093483838360405180602001604052806000815250611438565b600081815260026020526040812054600160a060020a03168061068f576040516000805160206129d8833981519152815260206004820152602960248201527f4552433732313a206f776e657220717565727920666f72206e6f6e657869737460448201527f656e7420746f6b656e000000000000000000000000000000000000000000000060648201526084016107b5565b6000600160a060020a038216611273576040516000805160206129d8833981519152815260206004820152602a60248201527f4552433732313a2062616c616e636520717565727920666f7220746865207a6560448201527f726f20616464726573730000000000000000000000000000000000000000000060648201526084016107b5565b50600160a060020a031660009081526003602052604090205490565b600654600160a060020a031633146112f1576040516000805160206129d8833981519152815260206004820181905260248201527f4f776e61626c653a2063616c6c6572206973206e6f7420746865206f776e657260448201526064016107b5565b6112fb6000611ce0565b565b600654600160a060020a0316331461135f576040516000805160206129d8833981519152815260206004820181905260248201527f4f776e61626c653a2063616c6c6572206973206e6f7420746865206f776e657260448201526064016107b5565b600a80547fffffffffffffffffffffff00ffffffffffffffffffffffffffffffffffffffff8116740100000000000000000000000000000000000000009182900460ff1615909102179055565b6060600180546106a49061263e565b600654600160a060020a0316331461141d576040516000805160206129d8833981519152815260206004820181905260248201527f4f776e61626c653a2063616c6c6572206973206e6f7420746865206f776e657260448201526064016107b5565b600e6114298282612740565b5050565b611429338383611d3f565b611442338361182e565b6114bc576040516000805160206129d8833981519152815260206004820152603160248201527f4552433732313a207472616e736665722063616c6c6572206973206e6f74206f60448201527f776e6572206e6f7220617070726f76656400000000000000000000000000000060648201526084016107b5565b6114c884848484611e15565b50505050565b6060600e6114db83611ea6565b6040516020016114ec929190612806565b6040516020818303038152906040529050919050565b600654600160a060020a03163314611564576040516000805160206129d8833981519152815260206004820181905260248201527f4f776e61626c653a2063616c6c6572206973206e6f7420746865206f776e657260448201526064016107b5565b60005b828110156114c85760005b8260ff168110156116205761158b601080546001019055565b6115bd8585848181106115a0576115a06128b5565b90506020020160208101906115b591906123ed565b601054611b53565b61160d6001601260008888878181106115d8576115d86128b5565b90506020020160208101906115ed91906123ed565b600160a060020a0316815260208101919091526040016000205490611b47565b5080611618816128e4565b915050611572565b508061162b816128e4565b915050611567565b600e80546116409061263e565b80601f016020809104026020016040519081016040528092919081815260200182805461166c9061263e565b80156116b95780601f1061168e576101008083540402835291602001916116b9565b820191906000526020600020905b81548152906001019060200180831161169c57829003601f168201915b505050505081565b600654600160a060020a03163314611723576040516000805160206129d8833981519152815260206004820181905260248201527f4f776e61626c653a2063616c6c6572206973206e6f7420746865206f776e657260448201526064016107b5565b600160a060020a0381166117a7576040516000805160206129d8833981519152815260206004820152602660248201527f4f776e61626c653a206e6577206f776e657220697320746865207a65726f206160448201527f646472657373000000000000000000000000000000000000000000000000000060648201526084016107b5565b6117b081611ce0565b50565b6000818152600460205260409020805473ffffffffffffffffffffffffffffffffffffffff1916600160a060020a03841690811790915581906117f58261115a565b600160a060020a03167f8c5be1e5ebec7d5bd14f71427d1e84f3dd0314c0f7b2291e5b200ac8c7c3b92560405160405180910390a45050565b600081815260026020526040812054600160a060020a03166118c0576040516000805160206129d8833981519152815260206004820152602c60248201527f4552433732313a206f70657261746f7220717565727920666f72206e6f6e657860448201527f697374656e7420746f6b656e000000000000000000000000000000000000000060648201526084016107b5565b60006118cb8361115a565b905080600160a060020a031684600160a060020a031614806119125750600160a060020a0380821660009081526005602090815260408083209388168352929052205460ff165b80611936575083600160a060020a031661192b84610727565b600160a060020a0316145b949350505050565b82600160a060020a03166119518261115a565b600160a060020a0316146119d5576040516000805160206129d8833981519152815260206004820152602560248201527f4552433732313a207472616e736665722066726f6d20696e636f72726563742060448201527f6f776e657200000000000000000000000000000000000000000000000000000060648201526084016107b5565b600160a060020a038216611a58576040516000805160206129d88339815191528152602060048201526024808201527f4552433732313a207472616e7366657220746f20746865207a65726f2061646460448201527f726573730000000000000000000000000000000000000000000000000000000060648201526084016107b5565b611a636000826117b3565b600160a060020a0383166000908152600360205260408120805460019290611a8c9084906128fd565b9091555050600160a060020a0382166000908152600360205260408120805460019290611aba9084906126df565b9091555050600081815260026020526040808220805473ffffffffffffffffffffffffffffffffffffffff1916600160a060020a0386811691821790925591518493918716917fddf252ad1be2c89b69c2b068fc378daa952ba7f163c4a11628f55a4df523b3ef91a4505050565b6000611b34828461293f565b9392505050565b6000611b3482846128fd565b6000611b3482846126df565b600160a060020a038216611bb1576040516000805160206129d8833981519152815260206004820181905260248201527f4552433732313a206d696e7420746f20746865207a65726f206164647265737360448201526064016107b5565b600081815260026020526040902054600160a060020a031615611c1e576040516000805160206129d8833981519152815260206004820152601c60248201527f4552433732313a20746f6b656e20616c7265616479206d696e7465640000000060448201526064016107b5565b600160a060020a0382166000908152600360205260408120805460019290611c479084906126df565b9091555050600081815260026020526040808220805473ffffffffffffffffffffffffffffffffffffffff1916600160a060020a03861690811790915590518392907fddf252ad1be2c89b69c2b068fc378daa952ba7f163c4a11628f55a4df523b3ef908290a45050565b600082611cbf8584611ffa565b14949350505050565b6000611b348284612953565b6000611b348284612967565b60068054600160a060020a0383811673ffffffffffffffffffffffffffffffffffffffff19831681179093556040519116919082907f8be0079c531659141344cd1fd0a4f28419497f9722a3daafe3b4186f6b6457e090600090a35050565b81600160a060020a031683600160a060020a031603611da8576040516000805160206129d8833981519152815260206004820152601960248201527f4552433732313a20617070726f766520746f2063616c6c65720000000000000060448201526064016107b5565b600160a060020a03838116600081815260056020908152604080832094871680845294825291829020805460ff191686151590811790915591519182527f17307eab39ab6107e8899845ad3d59bd9653f200f220920489ca2b5937696c31910160405180910390a3505050565b611e2084848461193e565b611e2c8484848461206e565b6114c8576040516000805160206129d8833981519152815260206004820152603260248201527f4552433732313a207472616e7366657220746f206e6f6e20455243373231526560448201527f63656976657220696d706c656d656e746572000000000000000000000000000060648201526084016107b5565b606081600003611ee957505060408051808201909152600181527f3000000000000000000000000000000000000000000000000000000000000000602082015290565b8160005b8115611f135780611efd816128e4565b9150611f0c9050600a83612953565b9150611eed565b60008167ffffffffffffffff811115611f2e57611f2e612408565b6040519080825280601f01601f191660200182016040528015611f58576020820181803683370190505b5090505b841561193657611f6d6001836128fd565b9150611f7a600a8661293f565b611f859060306126df565b7f010000000000000000000000000000000000000000000000000000000000000002818381518110611fb957611fb96128b5565b60200101907effffffffffffffffffffffffffffffffffffffffffffffffffffffffffffff1916908160001a905350611ff3600a86612953565b9450611f5c565b600081815b845181101561206657600085828151811061201c5761201c6128b5565b602002602001015190508083116120425760008381526020829052604090209250612053565b600081815260208490526040902092505b508061205e816128e4565b915050611fff565b509392505050565b6000600160a060020a0384163b1561220c576040517f150b7a02000000000000000000000000000000000000000000000000000000008152600160a060020a0385169063150b7a02906120cb90339089908890889060040161297e565b6020604051808303816000875af1925050508015612106575060408051601f3d908101601f19168201909252612103918101906129ba565b60015b6121c1573d808015612134576040519150601f19603f3d011682016040523d82523d6000602084013e612139565b606091505b5080516000036121b9576040516000805160206129d8833981519152815260206004820152603260248201527f4552433732313a207472616e7366657220746f206e6f6e20455243373231526560448201527f63656976657220696d706c656d656e746572000000000000000000000000000060648201526084016107b5565b805181602001fd5b7fffffffff00000000000000000000000000000000000000000000000000000000167f150b7a0200000000000000000000000000000000000000000000000000000000149050611936565b506001949350505050565b7fffffffff00000000000000000000000000000000000000000000000000000000811681146117b057600080fd5b60006020828403121561225757600080fd5b8135611b3481612217565b60005b8381101561227d578181015183820152602001612265565b50506000910152565b6000815180845261229e816020860160208601612262565b601f01601f19169290920160200192915050565b602081526000611b346020830184612286565b6000602082840312156122d757600080fd5b5035919050565b8035600160a060020a03811681146122f557600080fd5b919050565b6000806040838503121561230d57600080fd5b612316836122de565b946020939093013593505050565b60008060006060848603121561233957600080fd5b612342846122de565b9250612350602085016122de565b9150604084013590509250925092565b60008083601f84011261237257600080fd5b50813567ffffffffffffffff81111561238a57600080fd5b60208301915083602080830285010111156123a457600080fd5b9250929050565b600080602083850312156123be57600080fd5b823567ffffffffffffffff8111156123d557600080fd5b6123e185828601612360565b90969095509350505050565b6000602082840312156123ff57600080fd5b611b34826122de565b7f4e487b7100000000000000000000000000000000000000000000000000000000600052604160045260246000fd5b600067ffffffffffffffff8084111561245257612452612408565b604051601f8501601f19908116603f0116810190828211818310171561247a5761247a612408565b8160405280935085815286868601111561249357600080fd5b858560208301376000602087830101525050509392505050565b6000602082840312156124bf57600080fd5b813567ffffffffffffffff8111156124d657600080fd5b8201601f810184136124e757600080fd5b61193684823560208401612437565b6000806040838503121561250957600080fd5b612512836122de565b91506020830135801515811461252757600080fd5b809150509250929050565b6000806000806080858703121561254857600080fd5b612551856122de565b935061255f602086016122de565b925060408501359150606085013567ffffffffffffffff81111561258257600080fd5b8501601f8101871361259357600080fd5b6125a287823560208401612437565b91505092959194509250565b600080604083850312156125c157600080fd5b6125ca836122de565b91506125d8602084016122de565b90509250929050565b6000806000604084860312156125f657600080fd5b833567ffffffffffffffff81111561260d57600080fd5b61261986828701612360565b909450925050602084013560ff8116811461263357600080fd5b809150509250925092565b60028104600182168061265257607f821691505b60208210810361268b577f4e487b7100000000000000000000000000000000000000000000000000000000600052602260045260246000fd5b50919050565b7f4e487b7100000000000000000000000000000000000000000000000000000000600052601160045260246000fd5b600060ff821660ff81036126d6576126d6612691565b60010192915050565b8082018082111561068f5761068f612691565b601f821115610934576000818152602081206020601f860104810160208610156127195750805b6020601f860104820191505b8181101561273857828155600101612725565b505050505050565b815167ffffffffffffffff81111561275a5761275a612408565b61276e81612768845461263e565b846126f2565b602080601f8311600181146127a7576000841561278b5750858301515b60028086026008870290910a6000190419821617865550612738565b600085815260208120601f198616915b828110156127d6578886015182559484019460019091019084016127b7565b50858210156127f657878501516008601f88160260020a60001904191681555b5050505050600202600101905550565b60008084546128148161263e565b6001828116801561282c576001811461284157612870565b60ff1984168752821515830287019450612870565b8860005260208060002060005b858110156128675781548a82015290840190820161284e565b50505082870194505b505050508351612884818360208801612262565b7f2e6a736f6e0000000000000000000000000000000000000000000000000000009101908152600501949350505050565b7f4e487b7100000000000000000000000000000000000000000000000000000000600052603260045260246000fd5b6000600182016128f6576128f6612691565b5060010190565b8181038181111561068f5761068f612691565b7f4e487b7100000000000000000000000000000000000000000000000000000000600052601260045260246000fd5b60008261294e5761294e612910565b500690565b60008261296257612962612910565b500490565b808202811582820484141761068f5761068f612691565b6000600160a060020a038087168352808616602084015250836040830152608060608301526129b06080830184612286565b9695505050505050565b6000602082840312156129cc57600080fd5b8151611b348161221756fe08c379a000000000000000000000000000000000000000000000000000000000a2646970667358221220cc29fc5abbe5f11ec2daa30d737e9b3fc73f0eda8243b72982111ed9898983d864736f6c63430008110033",
  "immutableReferences": {},
  "source": "// SPDX-License-Identifier: MIT\npragma solidity >=0.4.21 <9.0.0;\n\n// Relevant Libraries\nimport \"@openzeppelin/contracts/token/ERC721/ERC721.sol\";\nimport \"@openzeppelin/contracts/access/Ownable.sol\";\nimport \"@openzeppelin/contracts/utils/Counters.sol\";\nimport \"@openzeppelin/contracts/utils/math/SafeMath.sol\";\nimport \"@openzeppelin/contracts/utils/Strings.sol\";\nimport \"@openzeppelin/contracts/utils/cryptography/MerkleProof.sol\";\n\ncontract ZIPSharks is ERC721, Ownable {\n    // Utils Used\n    using Counters for Counters.Counter;\n    using SafeMath for uint256;\n    using Strings for uint256;\n\n    //Team\n    address payable kTuck = payable(0xe40c8deA5EdAB02C3B778605cf7b9dD1301062d0);\n    address payable samurai =\n        payable(0x7f4EA72AFcCBa8401424A65Dfc9DB4d3701Be536);\n    address payable mufasa =\n        payable(0xf21df340812629D44264474d478be0215Ea60eb6);\n    address payable community =\n        payable(0x16232b3986724053193173305c63c66A8657664A);\n\n    // Properties\n    bool public publicSale;\n    uint256 public whitelistPrice = 0.02 ether;\n    uint256 public mintPrice = 0.03 ether;\n    uint16 public maxSupply = 2222;\n    string public uri;\n    bytes32 public root;\n\n    Counters.Counter private _tokenIdTracker;\n\n    // Mappings\n    mapping(address => bool) whitelistClaimed;\n    mapping(address => uint256) sharksMinted;\n\n    constructor() ERC721(\"ZIPSharks\", \"ZIPS\") {}\n\n    // Modifiers\n    modifier whitelistConfig() {\n        require(whitelistClaimed[msg.sender] != true);\n        _;\n    }\n\n    function whitelistMint(bytes32[] calldata _proof)\n        public\n        payable\n        whitelistConfig\n    {\n        require(\n            msg.value.mod(mintPrice) == 0,\n            \"Please mint through the website.\"\n        );\n\n        require(\n            (\n                MerkleProof.verify(\n                    _proof,\n                    root,\n                    keccak256(abi.encodePacked(msg.sender))\n                )\n            ),\n            \"This wallet is not registered. Try again with another wallet.\"\n        );\n\n        uint256 _amount = 0;\n        uint256 _balance = msg.value;\n\n        // Uses the balance sent to generate set number of NFTs\n        while (_balance >= whitelistPrice) {\n            _balance = _balance.sub(whitelistPrice);\n            _amount = _amount.add(1);\n        }\n\n        // Limits the number minted per wallet\n        require(\n            sharksMinted[msg.sender].add(_amount) <= 20,\n            \"Max mint per wallet is 20. Try another wallet.\"\n        );\n\n        // Limits the TokenID to MaxSupply\n        require(\n            (_tokenIdTracker.current().add(_amount)) <= maxSupply,\n            \"Current Mint Limit Reached. Try minting less.\"\n        );\n\n        // Runs a for loop to continue minting for the set amount asked.\n        for (uint8 counter = 0; counter < _amount; counter++) {\n            // 1.Mints the NFT to the current tokenID\n            // 2. Maps the current tokenChoice to the current URI\n            // 3. Adds one to tokenIDtracker\n            _tokenIdTracker.increment();\n            super._mint(msg.sender, _tokenIdTracker.current());\n        }\n\n        // WhitelistClaim and MintNumber Recorded\n        sharksMinted[msg.sender] = sharksMinted[msg.sender] + _amount;\n        whitelistClaimed[msg.sender] = true;\n    }\n\n    function publicMint() public payable {\n        require(\n            msg.value.mod(mintPrice) == 0,\n            \"Please mint through the website.\"\n        );\n\n        uint256 _amount = 0;\n        uint256 _balance = msg.value;\n\n        // Uses the balance sent to generate set number of NFTs\n        while (_balance >= mintPrice) {\n            _balance = _balance.sub(mintPrice);\n            _amount = _amount.add(1);\n        }\n\n        // Limits the number minted per wallet\n        require(\n            sharksMinted[msg.sender].add(_amount) <= 20,\n            \"Max mint per wallet is 20. Try another wallet.\"\n        );\n\n        // Limits the TokenID\n        require(\n            (_tokenIdTracker.current().add(_amount)) <= maxSupply,\n            \"Current Mint Limit Reached. Try minting less.\"\n        );\n\n        // Runs a for loop to continue minting for the set amount asked.\n        for (uint8 counter = 0; counter < _amount; counter++) {\n            // 1.Mints the NFT to the current tokenID\n            // 2. Maps the current tokenChoice to the current URI\n            // 3. Adds one to tokenIDtracker\n            _tokenIdTracker.increment();\n            super._mint(msg.sender, _tokenIdTracker.current());\n        }\n\n        sharksMinted[msg.sender] = sharksMinted[msg.sender] + _amount;\n    }\n\n    // ADMIN Methods\n\n    // SharkDrop Method\n    function sharkDrop(address[] calldata _addresses, uint8 _x)\n        public\n        onlyOwner\n    {\n        for (uint256 counter = 0; counter < _addresses.length; counter++) {\n            // Mints x amount per wallet inputed\n            for (uint256 n = 0; n < _x; n++) {\n                _tokenIdTracker.increment();\n                _mint(_addresses[counter], _tokenIdTracker.current());\n                sharksMinted[_addresses[counter]].add(1);\n            }\n        }\n    }\n\n    // Switches sale to public\n    function switchToPublic() public onlyOwner {\n        bool current = publicSale;\n        publicSale = !current;\n    }\n\n    //Withdraw Method\n\n    function withdraw() public onlyOwner {\n        uint256 _balance = address(this).balance;\n        uint256 _balanceDiv = _balance.div(100);\n        community.transfer(_balanceDiv.mul(10));\n        kTuck.transfer(_balanceDiv.mul(4));\n        mufasa.transfer(_balanceDiv.mul(11));\n        samurai.transfer(_balanceDiv.mul(75));\n    }\n\n    // TotalSupply Method\n    function totalSupply() public view returns (uint256) {\n        return _tokenIdTracker.current();\n    }\n\n    // Update Merkle Root\n    function updateRoot(bytes32 _x) public onlyOwner {\n        root = _x;\n    }\n\n    // URI methods\n\n    function tokenURI(uint256 tokenId)\n        public\n        view\n        virtual\n        override\n        returns (string memory)\n    {\n        return\n            string(abi.encodePacked(uri, Strings.toString(tokenId), \".json\"));\n    }\n\n    function setBaseUri(string memory _uri) public onlyOwner {\n        uri = _uri;\n    }\n\n    // OVERRIDE BaseURI Methods\n    function _baseURI() internal view virtual override returns (string memory) {\n        return uri;\n    }\n}\n",
  "sourcePath": "/Users/mustafaboorenie/zipsNFT/zipSharks/contracts/ZIPSharks.sol",
  "compiler": {
    "name": "solc",
    "version": "0.8.17+commit.8df45f5f.Emscripten.clang"
  },
  "schemaVersion": "3.4.3",
  "updatedAt": "2022-10-03T15:48:27.177Z",
  "networkType": "ethereum",
  "devdoc": {
    "kind": "dev",
    "methods": {
      "approve(address,uint256)": {
        "details": "See {IERC721-approve}."
      },
      "balanceOf(address)": {
        "details": "See {IERC721-balanceOf}."
      },
      "getApproved(uint256)": {
        "details": "See {IERC721-getApproved}."
      },
      "isApprovedForAll(address,address)": {
        "details": "See {IERC721-isApprovedForAll}."
      },
      "name()": {
        "details": "See {IERC721Metadata-name}."
      },
      "owner()": {
        "details": "Returns the address of the current owner."
      },
      "ownerOf(uint256)": {
        "details": "See {IERC721-ownerOf}."
      },
      "renounceOwnership()": {
        "details": "Leaves the contract without owner. It will not be possible to call `onlyOwner` functions anymore. Can only be called by the current owner. NOTE: Renouncing ownership will leave the contract without an owner, thereby removing any functionality that is only available to the owner."
      },
      "safeTransferFrom(address,address,uint256)": {
        "details": "See {IERC721-safeTransferFrom}."
      },
      "safeTransferFrom(address,address,uint256,bytes)": {
        "details": "See {IERC721-safeTransferFrom}."
      },
      "setApprovalForAll(address,bool)": {
        "details": "See {IERC721-setApprovalForAll}."
      },
      "supportsInterface(bytes4)": {
        "details": "See {IERC165-supportsInterface}."
      },
      "symbol()": {
        "details": "See {IERC721Metadata-symbol}."
      },
      "tokenURI(uint256)": {
        "details": "See {IERC721Metadata-tokenURI}."
      },
      "transferFrom(address,address,uint256)": {
        "details": "See {IERC721-transferFrom}."
      },
      "transferOwnership(address)": {
        "details": "Transfers ownership of the contract to a new account (`newOwner`). Can only be called by the current owner."
      }
    },
    "version": 1
  },
  "userdoc": {
    "kind": "user",
    "methods": {},
    "version": 1
  }
}